:020000040800F2
:20000000E8070020ED010008D56A00089D610008D16A00087D0A00080D8D0008000000001A
:20002000000000000000000000000000D96B0008490B0008000000003D6B0008316C0008C3
:20004000070200080702000807020008070200080702000807020008070200080702000818
:20006000070200080702000807020008810A00080702000807020008070200080702000876
:200080000702000807020008070200080702000807020008070200080702000807020008D8
:2000A0000702000807020008070200080702000807020008BD6C0008070200080702000898
:2000C000070200080702000807020008070200080702000807020008070200080702000898
:2000E0004D0B00080702000807020008070200080702000807020008070200080702000829
:20010000070200080702000807020008070200080702000807020008070200080702000857
:20012000070200080702000807020008070200080702000807020008070200080702000837
:20014000070200080702000807020008070200080702000807020008070200080702000817
:200160000702000807020008070200080702000807020008070200080702000807020008F7
:200180000702000807020008070200080702000807020008000000000702000807020008E8
:2001A000070200080702000807020008ED640008070200080702000807020008070200086F
:2001C000070200080702000807020008070200080702000807020008DFF80CD000F01EFAFE
:2001E000004800470D8E0008E80700200648804706480047FEE7FEE7FEE7FEE7FEE7FEE7B6
:20020000FEE7FEE7FEE7FEE7A96C0008D9010008421C10F8011B0029FBD1801A704730B59E
:200220000B46014600202022012409E021FA02F59D4205D303FA02F5491B04FA02F5284434
:20024000151EA2F10102F1DC30BD2DE9F05F0546002092469B4688460646814640241BE052
:20026000284641464746224600F0F9F953465A46C01A914110D311461846224600F0E0F904
:200280002D1A67EB01084F4622460120002100F0D7F917EB00094E41201EA4F10104DFDC90
:2002A000484631462A464346BDE8F09F2DE9FE4F804681EA0300C00F0C46009021F0004172
:2002C00023F00045B8EB0200A94105D24046214690461C460B46024623F00040104347D0E5
:2002E000270DC7F30A00C3F30A510290401A019040286BDAC3F3130040F4801B00989246C3
:2003000020B10023D2EB030A63EB0B0B01985946C0F14002504600F093F906460D46504649
:200320005946019A00F0ABF910EB08006141002487EA115284EAE7731A4340D0009A62B36E
:20034000019A012A4FEA075215DC001B61EB02014FF0004202EA0752CDE90042001C41F5DA
:20036000801132462B4600F0ABF903B0BDE8F08F40462146F9E7001B61EB0201001C41F50F
:20038000801300185B412018A2F5001747EB030140EAD570B6196D4111E06D084FEA360633
:2003A00045EAC0754FEA0752001B61EB0201001C41F5801149084FEA30000019514132461D
:2003C0002B4603B0BDE8F04F00F06BB90098012240000023D0EB020263EBE0730098214684
:2003E0004FEAE074B8EB000061EB0401E9E783F000435BE781F0004158E72DE9FE4F81EAF5
:20040000030404F0004421F0004100944FF0000B23F0004350EA01045ED052EA03045BD03C
:20042000C3F30A54C1F30A552C44A4F2F3340194A0FB0254C1F3130141F48011C3F3130388
:2004400043F4801301FB024400FB034E840A970A44EA815447EA8357A4FB076802958D0ACB
:2004600005FB07854FEA932C04FB0C542705029D4FEA065847EA1637B5EB08056EEB070CA0
:20048000870E920E47EA811742EA8312A7FB0201B6EB0B0164EB00042B0D43EA0C335E18DE
:2004A00044EB1C50DA465146E7FB0201C5F313044FEA0B3343EA14534FEA0432019C43EAF2
:2004C0000603A4F10C040294009CCDE900B400F0F7F803B0BDE8F08F00200146F9E72DE9BF
:2004E000F04D81EA030404F0004B21F0004514464FF0000A23F0004150EA050220D054EA52
:2005000001021DD0C5F30A570246C5F31303C1F31300C1F30A5640F4801543F48013A7EBBC
:200520000608101BD64608F2FD3873EB050002D308F1010801E092185B41B8F1000F03DA41
:2005400000200146BDE8F08D00204FF48011064684460EE0171B73EB050705D3121B63EB2B
:20056000050306434CEA010C49084FEA300092185B4150EA0107EDD152EA030012D082EA5A
:20058000040083EA0501084305D0101BAB4106D20122002306E000224FF0004302E06FF0C4
:2005A000010253101AEB06004CEB085110EB0A0041EB0B01BDE8F04D00F073B8C1F30A52F0
:2005C000C1F3130140F2FF3341F480119A4202DA00200146704740F233439A42A2F23342C6
:2005E00002DC524200F03BB800F02AB830B5041E71F1000404DB4FF00044404264EB010132
:20060000141E73F1000405DB1C464FF00043524263EB0403994208BF904230BD064C074D8C
:2006200006E0E06840F0010394E8070098471034AC42F6D3FFF7D4FD409A0008609A000850
:20064000202A04DB203A00FA02F1002070479140C2F1200320FA03F3194390407047202A6F
:2006600004DB203A21FA02F00021704721FA02F3D040C2F120029140084319467047202AEB
:2006800006DBCB17203A41FA02F043EAE07306E041FA02F3D040C2F120029140084319461A
:2006A000704710B5141E73F1000408DA401C41F1000192185B411A4301D120F0010010BD60
:2006C0002DE9F04D92469B4611B1B1FA81F202E0B0FA80F220329046FFF7B2FF04460F46C2
:2006E00040EA0A0041EA0B0153465A46084313D0114653EA010019D0C8F140025046FFF723
:20070000AEFF05460E46504659464246FFF798FF084305D0012004E020463946BDE8F08D17
:200720000020054346EAE0762C4337430A986305E40AA0EB08000022FD0A44EA47540A302B
:2007400002D500200146E9E7010510196941DDE9084500196941BDE8F04DA2E7D2B201E00C
:2007600000F8012B491EFBD270470022F6E710B513460A4604461946FFF7F0FF204610BD3C
:2007800080B58AB008900320079000200590079804900898006805F099FD02900898006883
:2007A00005F056FD0190029828B9FFE70198002800F0A380FFE708980068C068800100286C
:2007C00034D5FFE70898006A01282FD1FFE70898C06901282AD1FFE701200490FFE7089803
:2007E0000068006800F040000021B1EB901F18D1FFE705980021CAF2403188420DD3FFE743
:200800000898016E41F0100101660898416E41F0010141660120099072E005980130059088
:20082000DDE70898006840210160FFE70498022813D0FFE70898006805F048FD60B1FFE77C
:200840000898006805F022FD28B9FFE70898006805F078FDFFE7FFE7FFE70498012813D0E9
:20086000FFE70898006805F0F3FC60B1FFE70898006805F00BFD28B9FFE70898006805F0E6
:20088000EFFCFFE7FFE7FFE70498022806D0FFE7032806D1FFE70C20039005E008200390F2
:2008A00002E004200390FFE701F068FE0690FFE7089800688068039908421DD0FFE701F04C
:2008C0005DFE0699401A062815D3FFE7089800688068039908420DD0FFE70898016E41F0EF
:2008E000100101660898416E41F0010141660120099005E0FFE7DBE7FFE700200990FFE78B
:2009000009980AB080BD000080B584B002900298006805F0BBFC00900298006805F0BEFC55
:20092000002849D0FFE70098002845D1FFE702980068806800F00D00012809D1FFE702986A
:20094000006805F02DFC02980068032101600CE00298016E41F0100101660298416E41F072
:20096000010141660120039029E001F007FE0190FFE7029800688068C007E0B1FFE701F08B
:20098000FDFD0199401A032814D3FFE7029800688068C00768B1FFE70298016E41F0100176
:2009A00001660298416E41F0010141660120039005E0FFE7DDE7FFE700200390FFE7039850
:2009C00004B080BD80B584B002900298006805F065FC00284CD1FFE70298006880683F215E
:2009E000C8F2000108420DD0FFE70298016E41F0100101660298416E41F001014166012039
:200A0000039038E00298006805F0E4FB01F0B6FD0190FFE7029800680068C00738BBFFE730
:200A20000298006805F03AFC28B9FFE70298006805F0D0FBFFE701F0A1FD0199401A03286C
:200A400014D3FFE7029800680068C00768B9FFE70298016E41F0100101660298416E41F065
:200A6000010141660120039005E0FFE7D2E7FFE700200390FFE7039804B080BDFFE7FEE7BF
:200A800080B540F28000C2F2000001F031FA80BD84B003900398006840F20741C4F2020165
:200AA000884206D8FFE740F60000C4F20200009005E040F62000C4F202000090FFE7009829
:200AC00002900398007808384CF6CD41CCF6CC41A0FB010108090190029803998A6C22F095
:200AE00003021044C864039840F68001C4F202010165019800F01F00012101FA00F00399AF
:200B0000486504B07047000082B00190019800790090009840F6FC01C4F2020101EB800068
:200B200001998865019840F64011C4F20201C1650098013800F01F00012101FA00F00199A8
:200B4000086602B0704700007047000080B501F035FB80BD81B0EFF3108072B60090FFE733
:200B6000FEE7000010B5A2B040F21001C2F2000120911F9000201E901F98006808B1FFE795
:200B8000FFE7FFE72098C06D012803D1FFE70220219035E120980121C165FFE7FFE70020EC
:200BA00019901A9020980068B0F1A04F06D1FFE740F20010C5F20000019012E020980068D9
:200BC00040F20041C5F20001884206D1FFE740F20050C5F20000019002E000200190FFE720
:200BE000FFE7019868B9FFE72098016E41F020010166FFE720980021C165FFE701202190F2
:200C0000FEE0019805F06AFB00902098006805F065FB002840F0E480FFE70098002840F06C
:200C2000DF80FFE7209801680120B1F1A04F0BD0FFE7209800684FF60071CAF6FF71084489
:200C4000B0FA80F04009FFE7C00740F20071C5F2000100281CBF40F20031C5F200011D915D
:200C60001F980068002864D0FFE71D98806820F460401F994968209AD26B41EA4231084379
:200C80001D998860209801680120B1F1A04F0BD0FFE7209800684FF60071CAF6FF710844D0
:200CA000B0FA80F04009FFE7C00740F20071C5F2000100281CBF40F20031C5F2000140F279
:200CC0000030C5F2000081420DD1FFE74FF0A04005F0ECFA044640F20010C5F2000005F074
:200CE000E5FA204315E040F20040C5F2000005F0DDFA044640F20050C5F2000005F0D6FA80
:200D0000044340F20060C5F2000005F0CFFA2043FFE768B9FFE71D98806840F61F71884307
:200D20001F990A688968114308431D998860FFE755E01D98816821F46041816020980168EA
:200D40000120B1F1A04F0BD0FFE7209800684FF60071CAF6FF710844B0FA80F04009FFE785
:200D6000C00740F20071C5F2000100281CBF40F20031C5F2000140F20030C5F20000814257
:200D80000DD1FFE74FF0A04005F090FA044640F20010C5F2000005F089FA204315E040F2AC
:200DA0000040C5F2000005F081FA044640F20050C5F2000005F07AFA044340F20060C5F250
:200DC000000005F073FA2043FFE738B9FFE71D98816840F61F7291438160FFE7FFE707E0C4
:200DE0002098016E41F02001016601201E90FFE7FFE720980021C165FFE71E982190FFE746
:200E0000219822B010BD000080B5A8B040F21001C2F20001089107900020069003900798DD
:200E2000C0680021C4F27F01884201D0FFE700E0FFE7FFE70898C06D012804D1FFE7022033
:200E4000099000F004BC08980121C165FFE7FFE70898006805F03AFA002840F0E883FFE7BB
:200E60000898006807990A68496805F03FFA0898006805F02BFA02900898006805F0E8F9E7
:200E800001900298002840F09481FFE70198002840F08F81FFE707988068B0F1004F0ED197
:200EA000FFE70898006807990968002205F058FA089800684FF0004105F00AFB0CE00898BC
:200EC0000068079A1168926805F04AFA08980068002105F0FDFAFFE7079840690899096808
:200EE000C96801F018018908884005900798006904281CD0FFE70898006807990A68096937
:200F0000059B05F089FA08980068079A1169926905F0B4FA08980068079A1169D269013A5F
:200F2000B2FA82F25209520605F094FA40E108980068002105F07CF9400340B9FFE70898E5
:200F40000068002105F074F9C0F3846017E008980068002105F06CF990FAA0F00A900A983F
:200F600020B9FFE720208DF82F0005E00A98B0FA80F08DF82F00FFE79DF82F00FFE7079939
:200F80000968490329B9FFE707990968C1F3846114E00799096891FAA1F10C910C9921B9E4
:200FA000FFE720218DF8371005E00C99B1FA81F18DF83710FFE79DF83710FFE7884206D182
:200FC000FFE708980068002105F06CFAFFE708980068012105F02CF9400340B9FFE70898BB
:200FE0000068012105F024F9C0F3846017E008980068012105F01CF990FAA0F00E900E9835
:2010000020B9FFE720208DF83F0005E00E98B0FA80F08DF83F00FFE79DF83F00FFE7079964
:201020000968490329B9FFE707990968C1F3846114E00799096891FAA1F11091109921B93B
:20104000FFE720218DF8471005E01099B1FA81F18DF84710FFE79DF84710FFE7884206D1AD
:20106000FFE708980068012105F01CFAFFE708980068022105F0DCF8400340B9FFE70898B9
:201080000068022105F0D4F8C0F3846017E008980068022105F0CCF890FAA0F0129012982C
:2010A00020B9FFE720208DF84F0005E01298B0FA80F08DF84F00FFE79DF84F00FFE7079990
:2010C0000968490329B9FFE707990968C1F3846114E00799096891FAA1F11491149921B993
:2010E000FFE720218DF8571005E01499B1FA81F18DF85710FFE79DF85710FFE7884206D1D9
:20110000FFE708980068022105F0CCF9FFE708980068032105F08CF8400340B9FFE70898B7
:201120000068032105F084F8C0F3846017E008980068032105F07CF890FAA0F02490249805
:2011400020B9FFE720208DF8970005E02498B0FA80F08DF89700FFE79DF89700FFE7079905
:201160000968490329B9FFE707990968C1F3846114E00799096891FAA1F12691269921B9CE
:20118000FFE720218DF89F1005E02699B1FA81F18DF89F10FFE79DF89F10FFE7884206D14E
:2011A000FFE708980068032105F07CF9FFE7FFE7FFE70898006805F071F8002840F024819E
:2011C000FFE708980068079A1168D26805F0E4F80798C0680021C4F27F01884240F0138150
:2011E000FFE70898006807990968490329B9FFE707990968C1F3846114E00799096891FAA2
:20120000A1F12291229921B9FFE720218DF88F1005E02299B1FA81F18DF88F10FFE79DF84D
:201220008F10FFE7013101F01F01092970D8FFE707990968490329B9FFE707990968C1F39C
:20124000846114E00799096891FAA1F12091209921B9FFE720218DF8871005E02099B1FAB7
:2012600081F18DF88710FFE79DF88710FFE7013101F01F018906079A126852032AB9FFE7DD
:20128000079A1268C2F3846214E0079A126892FAA2F21E921E9A22B9FFE720228DF87F20DA
:2012A00005E01E9AB2FA82F28DF87F20FFE79DF87F20FFE7013202F01F02012303FA02F2F2
:2012C0001143079A126852032AB9FFE7079A1268C2F3846214E0079A126892FAA2F21C92EE
:2012E0001C9A22B9FFE720228DF8772005E01C9AB2FA82F28DF87720FFE79DF87720FFE74A
:20130000013202F01F0202EB420241EA025175E007990968490329B9FFE707990968C1F399
:20132000846114E00799096891FAA1F11A911A9921B9FFE720218DF86F1005E01A99B1FA00
:2013400081F18DF86F10FFE79DF86F10FFE7013101F01F018906079A126852032AB9FFE72C
:20136000079A1268C2F3846214E0079A126892FAA2F21892189A22B9FFE720228DF867201D
:2013800005E0189AB2FA82F28DF86720FFE79DF86720FFE7013202F01F02012303FA02F247
:2013A0001143079A126852032AB9FFE7079A1268C2F3846214E0079A126892FAA2F2169213
:2013C000169A22B9FFE720228DF85F2005E0169AB2FA82F28DF85F20FFE79DF85F20FFE7BD
:2013E000013202F01F0202EB42020023CFF6206303EB0252114341F00071FFE7079A926852
:2014000004F0AEFFFFE7FFE70798408848F20801084200F00B81FFE7089801680120B1F13D
:20142000A04F0BD0FFE7089800684FF60071CAF6FF710844B0FA80F04009FFE7C10740F27F
:201440000070C5F2000000291CBF40F20030C5F2000004F0DDFE04900798006840F20001AB
:20146000CCF22131884208D0FFE7079800681021C9F2C001884257D1FFE79DF8120000069B
:20148000002851D4FFE708980068B0F1A04F09D0FFE70898006840F20061C5F200018842A5
:2014A00041D1FFE7089801680120B1F1A04F0BD0FFE7089800684FF60071CAF6FF7108447E
:2014C000B0FA80F04009FFE7C10740F20070C5F2000000291CBF40F20030C5F200000499E8
:2014E00041F4000104F08AFF40F20800C2F2000000684FEA901042F66351C0F23E51A0FB42
:2015000001014FEA911000EB40004FF00C0101EB80000390FFE7039820B1FFE7039801386D
:201520000390F8E7FFE780E0079800680021CCF2527188423BD1FFE79DF81300C007B0BBB4
:20154000FFE70898006840F20011C5F20001884209D1FFE70898006840F20051C5F20001D5
:20156000884223D0FFE7089801680120B1F1A04F0BD0FFE7089800684FF60071CAF6FF715E
:201580000844B0FA80F04009FFE7C10740F20070C5F2000000291CBF40F20030C5F2000078
:2015A000049941F0807104F029FFFFE73CE0079800680021CCF68431884233D1FFE79DF866
:2015C0001200400600282DD4FFE70898006840F20011C5F20001884223D0FFE708980168F5
:2015E0000120B1F1A04F0BD0FFE7089800684FF60071CAF6FF710844B0FA80F04009FFE7F5
:20160000C10740F20070C5F2000000291CBF40F20030C5F20000049941F4800104F0EEFE59
:20162000FFE700E0FFE7FFE7FFE7FFE707E00898016E41F02001016601200690FFE7FFE71A
:2016400008980021C165FFE706980990FFE7099828B080BD81B040F21000C2F20000009033
:2016600000980068006C01B07047000010B588B040F21000C2F200000690002005900290C6
:20168000069818B9FFE701200790C4E10698406938B1FFE70698806A012801D1FFE7FFE733
:2016A000FFE70698006E48B9FFE7069800F0B6F90698002141660698C165FFE706980068FE
:2016C00004F0DCFD28B1FFE70698006804F076FDFFE70698006804F0F1FDF0B9FFE7069816
:2016E000006804F085FD40F20800C2F200000068800942F66351C0F23E51A0FB01018809D2
:20170000022101EB40000290FFE7029820B1FFE7029801380290F8E7FFE70698006804F08D
:20172000CDFD68B9FFE70698016E41F0100101660698416E41F00101416601200590FFE75F
:201740000698006804F0C2FD03900698006EC006002800F15581FFE70398002840F05081D2
:20176000FFE70698006E40F0020020F48070069908660698006804F091FD00286CD1FFE761
:20178000069801680120B1F1A04F0BD0FFE7069800684FF60071CAF6FF710844B0FA80F07D
:2017A0004009FFE7C00740F20071C5F2000100281CBF40F20031C5F2000140F20030C5F2A1
:2017C000000081420DD1FFE74FF0A04004F066FD044640F20010C5F2000004F05FFD204316
:2017E00015E040F20040C5F2000004F057FD044640F20050C5F2000004F050FD044340F246
:201800000060C5F2000004F049FD2043FFE710BBFFE7069801680120B1F1A04F0BD0FFE703
:20182000069800684FF60071CAF6FF710844B0FA80F04009FFE7C10740F20070C5F2000006
:2018400000291CBF40F20030C5F200000699496804F0C6FDFFE7FFE70698016C8268C36878
:20186000046A806A41EA44311943114341EA004004900698806A01280BD1FFE70698C06A86
:201880000021CFF6FE7101EB4040049908430490FFE70698006B50B1FFE70698016B406B80
:2018A00001F478710843049908430490FFE706980068C06844F20701CFF6F0710840049926
:2018C000084306990968C86006980068006920F0406006990A68896B08431061069800689F
:2018E00004F0F4FC01900698006804F0B1FC00900198002863D1FFE7009800285FD1FFE78B
:201900000698C169C06B890341EA4000049006980068C06844F20201884304990843069990
:201920000968C86006980069A0B1FFE706980068016941F48031016106980068D0F8C0008A
:2019400043F6FF71884306990A6809690843C2F8C00011E006980068016921F48031016142
:2019600006980068D0F8C00043F6FF71884306990968C1F8C000FFE70698406C012816D19C
:20198000FFE706980068006940F2FD7120EA010C06990A688B6CCC6C086D23431843496D0F
:2019A000084340EA0C0040F00100106106E006980068016921F001010161FFE7FFE70698CF
:2019C000406901280CD1FFE706980068006B20F00F0006990A68496A01390843106306E040
:2019E00006980068016B21F00F010163FFE70698006E40F0010020F002000699086607E0C7
:201A00000698016E41F01001016601200590FFE705980790FFE7079808B010BD10B59EB023
:201A20001D9000201C901B901A901990189003A85421FEF79AFE1D980068B0F1A04F5ED1FE
:201A4000FFE74FF4004003904FF00050149003A801F010FA10B1FFE7FFF77CF8FFE741F287
:201A60004C00C4F20200016841F400510160006800F4005002900298FFE7FFE741F24C00EF
:201A8000C4F20200016841F001010160006800F0010001900198FFE7022018900320199092
:201AA00000241A9418A94FF0904000F0A5FB40F28000C2F200000821C4F202010160052125
:201AC00041608460C460802101614FF4807141614FF4806181612021C161046200F0B2FA19
:201AE00010B1FFE7FFF736F8FFE71D9840F28001C2F2000181651D98C862FFE7FFE71EB0B9
:201B000010BD000080B586B040F21000C2F200000490049801680120B1F1A04F0BD0FFE78B
:201B2000049800684FF60071CAF6FF710844B0FA80F04009FFE7C10740F20070C5F2000005
:201B400000291CBF40F20030C5F2000004F068FB01900498006804F0B9FB002840F0E58017
:201B6000FFE7FFE70498C06D012803D1FFE702200590E0E004980121C165FFE7FFE704982A
:201B8000FEF720FF03900398002840F0C780FFE70498006E40F4807040F601618843049950
:201BA00008660498006840F20011C5F20001884203D1FFE74FF0A04011E00498006840F2EE
:201BC0000051C5F20001884205D1FFE740F20040C5F2000002E004980068FFE7FFE70499FE
:201BE0000968884203D0FFE7019830B9FFE70498016E21F480110166FFE70498006EC004BD
:201C0000002806D5FFE70498416E21F00601416603E0049800214166FFE7049800681C2163
:201C20000160FFE704980021C165FFE70498006840F20011C5F20001884203D1FFE74FF0D2
:201C4000A04011E00498006840F20051C5F20001884205D1FFE740F20040C5F2000002E0E3
:201C600004980068FFE7FFE70499096888420BD0FFE7019840B1FFE70198052804D0FFE70B
:201C80000198092815D1FFE704980068C0688001002809D5FFE70498006E40F4805020F4F3
:201CA000005004990866FFE70498006804F03CFB33E00498016E41F4801101660498006865
:201CC00040F20011C5F20001884203D1FFE74FF0A04011E00498006840F20051C5F2000136
:201CE000884205D1FFE740F20040C5F2000002E004980068FFE7FFE702900298C0688001AE
:201D0000002809D5FFE70498006E40F4805020F4005004990866FFE7FFE705E0FFE7049827
:201D20000021C165FFE7FFE702E002200390FFE703980590FFE706B080BD000080B584B0A1
:201D400040F21000C2F200000290FFE70298C06D012803D1FFE70220039024E002980121F6
:201D6000C165FFE7FFE70298FEF70AFD0190019888B9FFE70298FEF7C7FD0190019848B90C
:201D8000FFE70298006E40F0010020F4885002990866FFE7FFE7FFE702980021C165FFE7B6
:201DA00001980390FFE704B080BD000082B00190002000900198806A022806D0FFE70198AB
:201DC00004210164012000902EE001980068016821F00E0101600198C06C016821F480719B
:201DE000016001980068016821F0010101600198416C806C00F01F00012202FA00F04860AC
:201E00000198016D406D48600198806D58B1FFE70198806D016821F4807101600198C16DD4
:201E2000006E4860FFE7FFE7019801218162FFE7019800214162FFE702B0704780B582B029
:201E40000190002000900198806A02280ED0FFE7019804210164019801218162FFE7019890
:201E600000214162FFE7012000903EE001980068016821F00E01016001980068016821F083
:201E8000010101600198C06C016821F4807101600198416C806C00F01F00012202FA00F0FA
:201EA00048600198016D406D48600198806D58B1FFE70198806D016821F4807101600198BA
:201EC000C16D006E4860FFE7019801218162FFE7019800214162FFE70198C06B20B1FFE796
:201EE0000198C16B8847FFE7FFE7009802B080BD80B584B003900398406C00680290039823
:201F000000680068019002980399896C01F01F01C8404007002826D5FFE79DF804004007EC
:201F2000002820D5FFE70398006800688006002807D4FFE703980068016821F004010160E1
:201F4000FFE70398416C806C00F01F00042202FA00F048600398406B20B1FFE70398416B5A
:201F60008847FFE76BE002980399896C01F01F01C840800700282ED5FFE79DF80400800765
:201F8000002828D5FFE7039800680068800600280AD4FFE703980068016821F00A01016070
:201FA000039801218162FFE70398416C806C00F01F00022202FA00F04860FFE703980021FE
:201FC0004162FFE70398006B20B1FFE70398016B8847FFE732E002980399896C01F01F01B1
:201FE000C8400007002827D5FFE79DF804000007002821D5FFE703980068016821F00E0198
:020000040800F2
:2020000001600398416C806C00F01F00012202FA00F048600398026403988262FFE7039864
:2020200000214162FFE70398806B20B1FFE70398816B8847FFE700E0FFE7FFE7FFE704B037
:2020400080BD000080B584B040F28000C2F200000290029818B9FFE70120039098E00298CB
:20206000006840F20741C4F20201884218D8FFE7029801684FF6F872CBF6FD7211444CF6AC
:20208000CD42CCF6CC42A1FB02126FF0030101EA9201816402980021C4F20201416418E0DA
:2020A000029801684FF6F832CBF6FD7211444CF6CD42CCF6CC42A1FB02126FF0030101EA0A
:2020C00092018164029840F20041C4F202014164FFE702980221816202980068006801909C
:2020E000019847F6F071884301900298D0F808C0C2680369416942EA0C021A43114382690D
:202100001143C2691143006A084301990843019001980299096808600298FEF7B9FC0298D6
:202120008068B0F5804F04D1FFE7029800214160FFE702980179C06C01600298016D406DF0
:2021400048600298406888B1FFE70298406804280CD8FFE70298FEF7D7FC0298806D002134
:2021600001600298C16D006E486007E00298002181650298C16502980166FFE70298002136
:202180000164029801228262029841620391FFE7039804B080BD000081B0ADF80200BDF869
:2021A0000200B0F5005F07D1FFE740F2E410C2F2000001210170FFE701B0704780B582B039
:2021C0004FF40050ADF8060040F21440C4F201000068BDF8061008420CD0FFE7BDF806008A
:2021E00040F21441C4F201010860BDF80600FFF7D3FFFFE702B080BD86B005900491002060
:202200000390FFE7049800680399C840002800F09B81FFE7049800680399012202FA01F1D2
:20222000084002900298002800F08A81FFE70498406800F00300012807D0FFE704984068C0
:2022400000F0030002282FD1FFE705988068019003984000032101FA00F0019921EA0000D6
:2022600001900498C068039949008840019908430190019805998860059840680190039856
:20228000012101FA00F0019921EA0000019004984068C0F30010039988400199084301901A
:2022A000019805994860FFE70498406800F00300032818D0FFE70598C068019003984000F8
:2022C000032101FA00F0019921EA0000019004988068039949008840019908430190019879
:2022E0000599C860FFE70498406800F00300022826D1FFE7059803996FF0030202EA510119
:202300000844006A0190039800F0070080000F2101FA00F0019921EA00000190049800690E
:20232000039901F007018900884001990843019001980599039B02EA530211440862FFE786
:2023400005980068019003984000032101FA00F0019921EA000001900498406800F0030090
:20236000039949008840019908430190019805990860049880798007002800F0E080FFE721
:20238000FFE741F26000C4F20200016841F001010160006800F0010000900098FFE703980D
:2023A00020F003000821C4F2010140580190039800F0030080000F2101FA00F0019921EA32
:2023C000000001900598B0F1904F02D1FFE7002035E0059840F20041C4F60001884202D1F9
:2023E000FFE701202AE0059840F60001C4F60001884202D1FFE702201FE0059840F6004185
:20240000C4F60001884202D1FFE7032014E0059841F20001C4F60001884202D1FFE7042034
:2024200009E0059941F20042C4F600020620914208BF0520FFE7FFE7FFE7FFE7FFE70399E5
:2024400001F00301890088400199084301900198039921F003010822C4F20102885040F289
:202460000840C4F20100006801900298019921EA0000019004988079C006002805D5FFE751
:202480000298019908430190FFE7019840F20841C4F20101086040F20C40C4F20100006875
:2024A00001900298019921EA00000190049880798006002805D5FFE70298019908430190A8
:2024C000FFE7019840F20C41C4F20101086040F20440C4F20100006801900298019921EA79
:2024E00000000190049880798007002805D5FFE70298019908430190FFE7019840F2044141
:20250000C4F20101086040F20040C4F20100006801900298019921EA000001900498807914
:20252000C00728B1FFE70298019908430190FFE7019840F20041C4F201010860FFE7FFE727
:202540000398013003905DE606B0704783B04FF0904002902020ADF8060000200090009865
:2025600028B1FFE7BDF806000299886104E0BDF8060002998862FFE703B0704740F2DC30AB
:20258000C2F200000068704783B040F2E400C2F2000001900C200090FFE70198D0F8DC00FB
:2025A000012803D1FFE70220029042E001980121C0F8DC10FFE7FFE701980221C0F8E010D3
:2025C0000098013088B9FFE701980068D0F8CC1321F00201C0F8CC1301980068D0F8CC1310
:2025E00041F00101C0F8CC131CE001980068D0F8CC1341F00201C0F8CC1301980068D0F8D9
:20260000CC0320F00C000099084301990968C1F8CC0301980068D0F8CC1341F00101C0F8C5
:20262000CC13FFE701980121C0F8E01000200290FFE7029803B0704780B586B040F2E40055
:20264000C2F200000490049818B9FFE701200590C1E004980221C0F8E01004980021C0F8AC
:20266000E4100498C0F8E8100498C0F8EC100498C0F8F0100498C0F8F4100498C0F8F810C2
:202680000498C0F8FC100498007AC007C0B3FFE70498006846F60001C4F20101884210D100
:2026A000FFE7FFE741F26000C4F20200016841F080610160006800F0806001900198FFE7DF
:2026C000FFE70498006800680290029820F4404002900498006900F4404002990843029065
:2026E000029820F4405002900498406900F440500299084302900298049909680860FFE7D3
:20270000049800F06BF80498007A8007002814D5FFE70498006800680290029820F44070DA
:2027200002900498C06800F440700299084302900298049909680860FFE704980121C0F8BB
:20274000E010FFE704980021C0F8DC10FFE700208DF80F00FFE79DF80F00062838D8FFE7FA
:2027600004989DF80F10C1EBC10100EB81000021816104989DF80F20C2EBC20200EB8200EE
:20278000C16104989DF80F20C2EBC20200EB8200016204989DF80F20C2EBC20200EB820038
:2027A000416204989DF80F20C2EBC20200EB8200816204989DF80F20C2EBC20200EB820017
:2027C0000163FFE79DF80F0001308DF80F00C2E700200590FFE7059806B080BD82B00190AF
:2027E0000198006846F60001C4F20101884210D1FFE7FFE741F26000C4F20200016841F087
:2028000080610160006800F0806000900098FFE7FFE702B07047000080B588B040F2E4005E
:20282000C2F2000007900020069005900490039002900798006846F60001C4F20101884283
:202840001FD1FFE7FFE741F24C00C4F20200016841F001010160006800F001000190019805
:20286000FFE74FF440700290022003900490032005900D20069002A94FF09040FFF7BCFCC1
:20288000FFE708B080BD000080B584B040F2E400C2F2000002900A200190FFF76FFE0090EA
:2028A000FFE702980068D0F8880300F480300021B1EB104F18D1FFE70198013098B1FFE755
:2028C000FFF75CFE0099401A0199884203D8FFE7019838B9FFE702980721C0F8E010032093
:2028E00003900EE0FFE7DCE702980121C0F8E010FFE702980021C0F8DC10FFE7002003906C
:20290000FFE7039804B080BD80B584B040F2E401C2F2000102910021019100900298D0F8D8
:20292000E000022803D1FFE70220039019E002980221C0F8E0100198062805D1FFE70298A3
:20294000009903F095F805E002980199009A03F00FFAFFE702980121C0F8E01000200390B2
:20296000FFE7039804B080BD80B586B040F2E402C2F200020492002203920290019104989F
:20298000D0F8E000022803D1FFE70220059026E0FFE70498D0F8DC00012803D1FFE70220C3
:2029A00005901CE004980121C0F8DC10FFE7FFE704980221C0F8E01004980399029A019B81
:2029C00003F01EF904980121C0F8E010FFE704980021C0F8DC10FFE700200590FFE7059822
:2029E00006B080BD80B584B040F2E401C2F2000102910021019100900298D0F8E00002286D
:202A000003D1FFE7022003907DE0FFE70298D0F8DC00012803D1FFE70220039073E0029841
:202A20000121C0F8DC10FFE7FFE702980221C0F8E0100198062805D1FFE70298009903F0F6
:202A400041F805E002980199009A03F0CBF9FFE7009800680299019AC2EBC20201EB8201D7
:202A60000862009840680299019AC2EBC20201EB82014862009880680299019AC2EBC202C5
:202A800001EB820188620098C0680299019AC2EBC20201EB8201C862009800690299019AA6
:202AA000C2EBC20201EB820108630298019902F091FF0198062819D0FFE70098C06AA8B95C
:202AC000FFE702980068019900EBC110D0F8800020F400700099C96D40EA41200299096886
:202AE000019A01EBC211C1F88000FFE702980121C0F8E010FFE702980021C0F8DC10FFE7CE
:202B000000200390FFE7039804B080BD80B584B040F2E401C2F20001029100210191009085
:202B20000298D0F8E000022803D1FFE70220039029E0FFE70298D0F8DC00012803D1FFE7AA
:202B4000022003901FE002980121C0F8DC10FFE7FFE702980221C0F8E01002980199009A62
:202B600003F0C0FA0298019902F034FF02980121C0F8E010FFE702980021C0F8DC10FFE7C0
:202B800000200390FFE7039804B080BD40F2DC30C2F20000016801310160704780B582B004
:202BA0000020019000F082F8002000F00BF818B1FFE70120019002E000F036F8FFE702B0EE
:202BC00080BD000080B582B0019000200090FFE740F20800C2F20000006844F6D351C1F2C3
:202BE0006201A0FB0101880901F0C2F9A0B9FFE701980F280CD8FFE701994FF0FF3000F0C7
:202C00003FF8019840F20C01C2F20001086002E001200090FFE702E001200090FFE7FFE7B0
:202C2000009802B080BD000080B582B0FFE741F26000C4F20200016841F001010160006810
:202C400000F0010001900198FFE7FFE741F25800C4F20200016841F080510160006800F026
:202C6000805000900098FFE700F0FAF802B080BD80B582B00190019806F04AF802B080BDED
:202C800010B584B0039002910020019006F056F80090039C00980299019A03F01DFF0146CD
:202CA000204606F053F804B010BD000080B582B003200190019806F067F802B080BD0000F4
:202CC00083B000200190019800285AD1FFE747F20000C4F20000006800F4C060B0F5806F3F
:202CE00045D1FFE747F28000C4F20000016821F48071016047F20000C4F20000016801221E
:202D000062F34A21016040F20800C2F200000068322148434DF68361C4F21B31A0FB010198
:202D200002EB91400090FFE747F21400C4F20000016800204905002905D5FFE700980028DC
:202D400018BF0120FFE7C00720B1FFE7009801380090E9E747F21400C4F200000068400536
:202D6000002803D5FFE70320029077E008E047F28000C4F20000016821F480710160FFE754
:202D800069E00198B0F5007F5AD1FFE747F20000C4F20000006800F4C060B0F5806F45D107
:202DA000FFE747F28000C4F20000016841F48071016047F20000C4F200000168012262F3FE
:202DC0004A21016040F20800C2F200000068322148434DF68361C4F21B31A0FB010102EB40
:202DE00091400090FFE747F21400C4F20000016800204905002905D5FFE70098002818BF32
:202E00000120FFE7C00720B1FFE7009801380090E9E747F21400C4F2000000684005002824
:202E200003D5FFE70320029018E008E047F28000C4F20000016841F480710160FFE709E011
:202E400047F20000C4F200000168022262F34A210160FFE7FFE700200290FFE703B0704707
:202E600047F20800C4F20000016841F4804101607047000080B588B0079000200490039099
:202E8000079880780007002840F1AC80FFE70020029041F25800C4F202000068C0000028E4
:202EA00012D4FFE7FFE741F25800C4F20200016841F080510160006800F0805001900198FF
:202EC000FFE701200290FFE747F20000C4F20000016841F480710160FFF750FB0590FFE7D8
:202EE00047F20000C4F200000068C00500280BD4FFE7FFF743FB0599401A032803D3FFE7B6
:202F00000320049001E0EBE7FFE70498002858D1FFE741F29000C4F20200006800F4407007
:202F200006900698C8B1FFE706980799096D884213D0FFE741F29000C4F20200016821F4BE
:202F400040710691016841F480310160016821F48031016006990160FFE79DF81800C0078F
:202F6000E0B1FFE7FFF70AFB0590FFE741F29000C4F202000068800700280DD4FFE7FFF715
:202F8000FDFA0599401A41F28931884203D3FFE70320049001E0E9E7FFE7FFE7049860B9E6
:202FA000FFE741F29000C4F20200016821F44071079A126D1143016002E004980390FFE7B5
:202FC00002E004980390FFE70298012809D1FFE741F25800C4F20200016821F08051016088
:202FE000FFE7FFE707980078C00760B1FFE741F28800C4F20200016821F00301079A5268E4
:2030000011430160FFE707980078800700280CD5FFE741F28800C4F20200016821F00C018E
:20302000079A926811430160FFE707980078400700280CD5FFE741F28800C4F20200016831
:2030400021F03001079AD26811430160FFE707980078000700280CD5FFE741F28800C4F23A
:203060000200016821F0C001079A126911430160FFE707980078C00600280CD5FFE741F25D
:203080008800C4F20200016821F44071079A526911430160FFE707980078800600280CD524
:2030A000FFE741F28800C4F20200016821F44061079A926911430160FFE707980078400604
:2030C00000280CD5FFE741F28800C4F20200016821F44051079AD26911430160FFE7079869
:2030E0000078000600280CD5FFE741F28800C4F20200016821F44041079A126A114301601F
:20310000FFE707984078C00760B1FFE741F28800C4F20200016821F44031079A526A1143A1
:203120000160FFE707988078800700280CD5FFE741F29C00C4F20200016821F00301079A95
:20314000926A11430160FFE707984078800700280CD5FFE741F28800C4F20200016821F41A
:203160004021079AD26A11430160FFE707984078400700281BD5FFE741F28800C4F2020067
:20318000016821F44011079A126B114301600798006BB0F5801F09D1FFE741F20C00C4F28A
:2031A0000200016841F480110160FFE7FFE707984078000700281BD5FFE741F28800C4F2E4
:2031C0000200016821F44001079A526B114301600798406BB0F5800F09D1FFE741F20C009E
:2031E000C4F20200016841F480110160FFE7FFE707984078C00600281BD5FFE741F28800E5
:20320000C4F20200016821F04071079A926B114301600798806BB0F1807F09D1FFE741F25B
:203220000C00C4F20200016841F480110160FFE7FFE707984078800600281BD5FFE741F260
:203240008800C4F20200016821F04061079AD26B114301600798C06BB0F1006F09D1FFE7E6
:2032600041F20C00C4F20200016841F480110160FFE7FFE707984078400600281BD5FFE760
:2032800041F28800C4F20200016821F04061079A126C114301600798006CB0F1006F09D1D7
:2032A000FFE741F20C00C4F20200016841F480110160FFE7FFE707984078000600281BD560
:2032C000FFE741F28800C4F20200016821F04051079A526C114301600798406CB0F1805FAB
:2032E00009D1FFE741F20C00C4F20200016841F480310160FFE7FFE707988078C007D8B1B4
:20330000FFE741F28800C4F20200016821F04041079A926C114301600798806CB0F1804F0A
:2033200009D1FFE741F20C00C4F20200016841F480310160FFE7FFE7079880784007002854
:203340001BD5FFE741F29C00C4F20200016821F44011079AD26C114301600798C06CB0F53D
:20336000001F09D1FFE741F20C00C4F20200016841F480110160FFE7FFE7039808B080BD8B
:2033800080B586B004900420039000200090049818B9FFE7012005907AE1039842F2000193
:2033A000C4F20201096801F00F01884215D9FFE742F20000C4F20200016821F00F01039A31
:2033C00011430160006800F00F000399884203D0FFE7012005905BE1FFE704980078C007FF
:2033E000002800F09F80FFE704984068032838D1FFE741F20000C4F2020000688001002856
:2034000003D4FFE70120059042E103F099FB019001984BF20141C0F2C441884220D3FFE78C
:2034200041F20800C4F20200006810F0F00F0AD0FFE7049800788007002810D5FFE7049848
:20344000806860B9FFE741F20800C4F202000168082262F30711016080200090FFE7FFE735
:2034600036E00498406802280DD1FFE741F20000C4F2020000688003002803D4FFE7012028
:20348000059005E10CE041F20000C4F2020000684005002803D4FFE701200590F8E0FFE7D4
:2034A00000F028F9019001984BF20141C0F2C44188420CD3FFE741F20800C4F202000168B0
:2034C000082262F30711016080200090FFE7FFE741F20800C4F20200016821F00301049AE9
:2034E000526811430160FFF749F80290FFE741F20800C4F20200006800F00C000499496809
:20350000B0EB810F0DD0FFE7FFF738F80299401A41F28931884203D3FFE703200590B7E0E0
:20352000E5E7FFE704980078800700282CD5FFE7049800784007002809D5FFE741F20800AD
:20354000C4F20200016841F4E0610160FFE704980078000700280BD5FFE741F20800C4F293
:203560000200016841F4E06121F460510160FFE741F20800C4F20200016821F0F001049A61
:203580009268114301600DE00098802809D1FFE741F20800C4F20200016821F0F0010160D0
:2035A000FFE7FFE7039842F20001C4F20201096801F00F01884227D2FFE742F20000C4F2B1
:2035C0000200016821F00F01039A11430160FEF7D5FF0290FFE742F20000C4F20200006878
:2035E00000F00F00039988420DD0FFE7FEF7C6FF0299401A41F28931884203D3FFE703205E
:20360000059045E0E7E7FFE704980078400700280CD5FFE741F20800C4F20200016821F481
:20362000E061049AD26811430160FFE704980078000700280DD5FFE741F20800C4F20200D8
:20364000016821F46051049A126941EAC2010160FFE700F04FF841F20801C4F20201096850
:20366000C9B2090949F6E412C0F60002515C01F01F01C84040F20801C2F20001086040F280
:203680000C00C2F200000068FFF79CFA0590FFE7059806B080BD000040F20800C2F200007D
:2036A0000068704780B5FFF7F7FF41F20801C4F202010968C1F3022149F6F412C0F6000290
:2036C000515C01F01F01C84080BD000080B5FFF7E3FF41F20801C4F202010968C1F3C221DD
:2036E00049F6F412C0F60002515C01F01F01C84080BD000085B041F20800C4F2020000683A
:2037000000F00C00042806D1FFE742F20040C0F2F400009067E041F20800C4F20200006878
:2037200000F00C00082806D1FFE743F20060C0F26E10009056E041F20800C4F202000068BA
:2037400000F00C000C2849D1FFE741F20C00C4F20200016801F0030103910068C0B2012154
:2037600001EB101001900398022814D0FFE7032812D1FFE7019843F20061C0F26E11B1FB1D
:20378000F0F041F20C01C4F202010968C1F306214843049011E0FFE7019842F20041C0F24E
:2037A000F401B1FBF0F041F20C01C4F202010968C1F3062148430490FFE741F20C00C4F249
:2037C0000200006800F0C060022101EB1060029004980299B0FBF1F0009002E00020009079
:2037E000FFE7FFE7FFE7009805B07047B0B588B00690069818B9FFE701200790B5E306989D
:203800000078C007002800F09880FFE741F20800C4F20200006800F00C00049041F20C0029
:20382000C4F20200006800F00300039004980C2804D1FFE70398032804D0FFE7049808280B
:2038400011D1FFE741F20000C4F2020000688003002807D5FFE70698406818B9FFE70120C2
:20386000079082E368E0FFE706984068B0F5803F09D1FFE741F20000C4F20200016841F42B
:203880008031016020E006984068B0F5A02F0DD1FFE741F20000C4F20200016841F480216E
:2038A0000160016841F4803101600CE041F20000C4F20200016821F480310160016821F412
:2038C00080210160FFE7FFE7FFE706984068C8B1FFE7FEF753FE0590FFE741F20000C4F2E5
:2038E00002000068800300280BD4FFE7FEF746FE0599401A652803D3FFE70320079034E3A3
:20390000EBE718E0FEF73AFE0590FFE741F20000C4F202000068800300280BD5FFE7FEF77C
:203920002DFE0599401A652803D3FFE7032007901BE3EBE7FFE7FFE7FFE706980078800742
:20394000002840F19B80FFE741F20800C4F20200006800F00C00049041F20C00C4F202002B
:20396000006800F00300039004980C2804D1FFE70398022804D0FFE7049804282AD1FFE7A6
:2039800041F20000C4F2020000684005002807D5FFE70698C06818B9FFE701200790E4E2AA
:2039A00041F20400C4F20200016821F0FE41069A126941EA0261016040F20C00C2F2000063
:2039C0000068FFF7FFF818B1FFE701200790CCE2FFE752E00698C06868B3FFE741F200006B
:2039E000C4F20200016841F480710160FEF7C6FD0590FFE741F20000C4F202000068400554
:203A000000280BD4FFE7FEF7B9FD0599401A032803D3FFE703200790A7E2EBE741F20400E3
:203A2000C4F20200016821F0FE41069A126941EA0261016020E041F20000C4F202000168B7
:203A400021F480710160FEF799FD0590FFE741F20000C4F202000068400500280BD5FFE773
:203A6000FEF78CFD0599401A032803D3FFE7032007907AE2EBE7FFE7FFE7FFE70698007839
:203A80000007002847D5FFE70698406908B3FFE741F29400C4F20200016841F00101016091
:203AA000FEF76CFD0590FFE741F29400C4F202000068800700280BD4FFE7FEF75FFD0599E3
:203AC000401A032803D3FFE7032007904DE2EBE720E041F29400C4F20200016821F00101EF
:203AE0000160FEF74BFD0590FFE741F29400C4F202000068800700280BD5FFE7FEF73EFD21
:203B00000599401A032803D3FFE7032007902CE2EBE7FFE7FFE7069800784007002840F1AA
:203B2000C080FFE70020029041F25800C4F202000068C000002812D4FFE7FFE741F25800DD
:203B4000C4F20200016841F080510160006800F0805001900198FFE701200290FFE747F2D7
:203B60000000C4F200000068C005002821D4FFE747F20000C4F20000016841F48071016080
:203B8000FEF7FCFC0590FFE747F20000C4F200000068C00500280BD4FFE7FEF7EFFC059936
:203BA000401A032803D3FFE703200790DDE1EBE7FFE7FFE706988068012809D1FFE741F20C
:203BC0009000C4F20200016841F0010101601FE00698806805280DD1FFE741F29000C4F2B1
:203BE0000200016841F004010160016841F0010101600CE041F29000C4F20200016821F0E5
:203C000001010160016821F004010160FFE7FFE7FFE706988068D8B1FFE7FEF7AFFC059085
:203C2000FFE741F29000C4F202000068800700280DD4FFE7FEF7A2FC0599401A41F28931CD
:203C4000884203D3FFE7032007908EE1E9E71AE0FEF794FC0590FFE741F29000C4F2020070
:203C60000068800700280DD5FFE7FEF787FC0599401A41F28931884203D3FFE703200790C8
:203C800073E1E9E7FFE70298012809D1FFE741F25800C4F20200016821F080510160FFE7C2
:203CA000FFE7069800788006002847D5FFE70698806908B3FFE741F29800C4F20200016844
:203CC00041F001010160FEF759FC0590FFE741F29800C4F202000068800700280BD4FFE72C
:203CE000FEF74CFC0599401A032803D3FFE7032007903AE1EBE720E041F29800C4F202007E
:203D0000016821F001010160FEF738FC0590FFE741F29800C4F202000068800700280BD5A8
:203D2000FFE7FEF72BFC0599401A032803D3FFE70320079019E1EBE7FFE7FFE70698C06989
:203D4000002800F00F81FFE741F20800C4F20200006800F00C000C2800F0AD80FFE70698A9
:203D6000C069022876D1FFE741F20000C4F20200016821F080710160FEF700FC0590FFE7A0
:203D800041F20000C4F202000068800100280BD5FFE7FEF7F3FB0599401A032803D3FFE79F
:203DA00003200790E1E0EBE741F20C0EC4F2020EDEF8001048F20C02C0F29F1201EA020C19
:203DC000069A136A516A906AD46A6FF00F0505EB0111194341EA0020116B0023CFF6E07300
:203DE00003EA0151A1F500110843516B4FF07E4202EA016101F17E41084340EAC46040EA15
:203E00000C00CEF8000041F20000C4F20200016841F080710160DEF8000040F08070CEF83D
:203E20000000FEF7ABFB0590FFE741F20000C4F202000068800100280BD4FFE7FEF79EFB1D
:203E40000599401A032803D3FFE7032007908CE0EBE72FE041F20000C4F20200016821F017
:203E60008071016041F20C00C4F20200016821F00301016001684FF6FF72CFF6EE62114095
:203E80000160FEF77BFB0590FFE741F20000C4F202000068800100280BD5FFE7FEF76EFBBB
:203EA0000599401A032803D3FFE7032007905CE0EBE7FFE755E00698C069012803D1FFE796
:203EC0000120079051E041F20C00C4F2020000680390039800F003000699096A88423BD191
:203EE000FFE7039800F0F0000699496A6FF00F0202EB011188422FD1FFE7039800F4FE4023
:203F00000699896AB0EB012F26D1FFE7039800F078400699C96AB0EBC16F1DD1FFE7039818
:203F200000F4C0000699096B0022CFF6E07202EA0151A1F5001188420ED1FFE7039800F082
:203F4000C0600699496B4FF07E4202EA016101F17E41884203D0FFE70120079005E0FFE7EA
:203F6000FFE7FFE700200790FFE7079808B0B0BD80B582B00190019802F030FE02B080BD74
:203F800081B0009001B0704781B0009001B0704781B0009001B0704784B040F2FC11C2F27F
:203FA00000010291019000200090FFE70298C06B012803D1FFE702200390C1E0029801218C
:203FC000C163FFE7FFE7009820F0FF000199C96808430090009820F4407001998968084372
:203FE0000090009820F480600199496808430090009820F4006001990968084300900098F5
:020000040800F2
:2040000020F480500199096908430090009820F400500199496908430090009820F4804046
:204020000199096B08430090009820F470200199896940EA014000900298006842F6004159
:20404000C4F20101884212D0FFE70298006843F20041C4F20101884209D0FFE7029800685B
:2040600045F20001C4F20101884208D1FFE7009820F080500199C96908430090FFE7029828
:20408000006842F60041C4F20101884212D0FFE70298006843F20041C4F20101884209D022
:2040A000FFE70298006845F20001C4F2010188423AD1FFE7009820F470000199896A40EA9A
:2040C00001500090009820F080700199096A08430090009820F000700199496A084300903F
:2040E0000298006842F60041C4F20101884212D0FFE70298006843F20041C4F20101884201
:2041000009D0FFE70298006845F20001C4F20101884208D1FFE7009820F000500199C96AA0
:2041200008430090FFE7FFE70098029909684864FFE702980021C163FFE700200390FFE744
:20414000039804B07047000081B0009001B0704781B0009001B0704781B0009001B07047DE
:2041600085B003900291FFE70398C06B012803D1FFE702200490A2E003980121C163FFE756
:20418000FFE7039802210164039800684068019003980068806800900398006842F60041E3
:2041A000C4F20101884212D0FFE70398006843F20041C4F20101884209D0FFE703980068F8
:2041C00045F20001C4F2010188420AD1FFE7019820F47000019002984068019908430190FE
:2041E000FFE701984FF68F71CFF6FF510840019002980068019908430190019803990968EF
:2042000048600398006842F60041C4F2010188423CD0FFE703980068B0F1804F36D0FFE7A7
:204220000398006840F20041C4F2000188422DD0FFE70398006840F60001C4F200018842E9
:2042400024D0FFE70398006840F60041C4F2000188421BD0FFE70398006843F20041C4F289
:204260000101884212D0FFE70398006844F20001C4F20101884209D0FFE70398006845F2F5
:204280000001C4F2010188420ED1FFE7009820F08000009002988068009908430090009890
:2042A000039909688860FFE7039801210164FFE703980021C163FFE700200490FFE704981F
:2042C00005B0704781B0009001B0704780B582B00090009818B9FFE70120019035E00098A4
:2042E000006C38B9FFE700980021C163009800F02FF8FFE7009802210164009951F8040BF8
:2043000002F0E4FC00980121C166FFE7009801214164009881640098C164009801650098D5
:20432000416500988165FFE7FFE700980121C165009801660098416600988166FFE7009872
:204340000121016400200190FFE7019802B080BD80B584B003900398006842F60041C4F289
:204360000101884210D1FFE7FFE741F26000C4F20200016841F400610160006800F400605D
:2043800002900298FFE737E003980068B0F1804F10D1FFE7FFE741F25800C4F20200016828
:2043A00041F001010160006800F0010001900198FFE720E00398006840F20041C4F20001D3
:2043C000884217D1FFE7FFE741F25800C4F20200016841F002010160006800F00200009034
:2043E0000098FFE71D200021FEF74AFC1D20FEF73FFCFFE7FFE7FFE704B080BD83B040F231
:20440000FC10C2F2000001900198006C012803D0FFE70120029070E00198022101640198A7
:204420000068C16841F00101C1600198006842F60041C4F2010188423CD0FFE701980068A8
:20444000B0F1804F36D0FFE70198006840F20041C4F2000188422DD0FFE70198006840F6F1
:204460000001C4F20001884224D0FFE70198006840F60041C4F2000188421BD0FFE701987D
:20448000006843F20041C4F20101884212D0FFE70198006844F20001C4F20101884209D061
:2044A000FFE70198006845F20001C4F20101884219D1FFE70198006880680721C0F20101C6
:2044C00008400090009806280CD0FFE70098B0F5803F07D0FFE701980068016841F0010126
:2044E0000160FFE706E001980068016841F001010160FFE700200290FFE703B070470000A9
:2045000080B586B00490039100200290FFE70498C06B012803D1FFE702200590CDE00498C6
:204520000121C163FFE7FFE7049802210164049800688068019001984FF68871CFF6CE71ED
:2045400008400190019820F47F400190019804990968886003980068002800F09980FFE7DC
:20456000102800F09580FFE7202800F09180FFE7302800F08D80FFE740287CD0FFE750289C
:204580005FD0FFE7602869D0FFE7702835D0FFE7B0F5805F30D0FFE7B0F5005F42D0FFE776
:2045A000B0F5801F74D0FFE7B0F1101F70D0FFE72021C0F2100188426AD0FFE73021C0F2A6
:2045C0001001884264D0FFE74021C0F2100188425ED0FFE75021C0F21001884258D0FFE7D8
:2045E0006021C0F21001884252D0FFE77021C0F2100188424CD052E054E004980068039B63
:204600005A689968DB6802F049FC0498006880680190019840F07700019001980499096868
:2046200088603FE004980068039B5A689968DB6802F034FC04980068816841F480418160E5
:2046400030E004980068039A5168D26803F0FEF804980068502102F03BFC23E00498006828
:20466000039A5168D26803F019F904980068602102F02EFC16E004980068039A5168D2687A
:2046800003F0E4F804980068402102F021FC09E0049800680399096802F01AFC02E00120D2
:2046A0000290FFE7049801210164FFE704980021C163FFE702980590FFE7059806B080BD0D
:2046C00081B0009001B0704780B582B0019001980068006900F002000021B1EB500F28D049
:2046E000FFE701980068C06800F002000021B1EB500F1DD0FFE7019800686FF00201016105
:2047000001980121C161019800688069800720B1FFE70198FFF7D4FF06E0019800F0FEF9CC
:20472000019800F059FBFFE701980021C161FFE7FFE701980068006900F004000021B1EBF3
:20474000900F29D0FFE701980068C06800F004000021B1EB900F1ED0FFE7019800686FF02E
:204760000401016101980221C16101980068806910F4407F04D0FFE70198FFF7A1FF06E078
:20478000019800F0CBF9019800F026FBFFE701980021C161FFE7FFE701980068006900F03A
:2047A00008000021B1EBD00F28D0FFE701980068C06800F008000021B1EBD00F1DD0FFE7E7
:2047C000019800686FF00801016101980421C16101980068C069800720B1FFE70198FFF737
:2047E0006FFF06E0019800F099F9019800F0F4FAFFE701980021C161FFE7FFE70198006844
:20480000006900F010000021B1EB101F29D0FFE701980068C06800F010000021B1EB101F4F
:204820001ED0FFE7019800686FF01001016101980821C16101980068C06910F4407F04D02C
:20484000FFE70198FFF73CFF06E0019800F066F9019800F0C1FAFFE701980021C161FFE7EE
:20486000FFE7019800680069C00780B1FFE701980068C068C00748B1FFE7019800686FF0DB
:2048800001010161019800F0ABFAFFE7FFE7019800680069C0B20021B1EBD01F13D0FFE769
:2048A00001980068C068C0B20021B1EBD01F09D0FFE7019800686FF0800101610198FFF720
:2048C00063FBFFE7FFE701980068006900F480700021B1EB102F13D0FFE701980068C06872
:2048E000C0B20021B1EBD01F09D0FFE7019800686FF4807101610198FFF742FBFFE7FFE78C
:2049000001980068006900F040000021B1EB901F14D0FFE701980068C06800F0400000214D
:20492000B1EB901F09D0FFE7019800686FF040010161019800F0B0FAFFE7FFE7019800686A
:20494000006900F020000021B1EB501F14D0FFE701980068C06800F020000021B1EB501F83
:2049600009D0FFE7019800686FF0200101610198FFF70EFBFFE7FFE701980068006900F4D3
:2049800080100021B1EB105F14D0FFE701980068C06800F480100021B1EB105F09D0FFE7F9
:2049A000019800686FF4801101610198FFF7D0FBFFE7FFE701980068006900F400100021EB
:2049C000B1EB505F14D0FFE701980068C06800F400100021B1EB505F09D0FFE70198006869
:2049E0006FF4001101610198FFF7AEFBFFE7FFE701980068006900F480000021B1EB905F53
:204A000014D0FFE701980068C06800F480000021B1EB905F09D0FFE7019800686FF48001DF
:204A200001610198FFF798FBFFE7FFE701980068006900F400000021B1EBD05F14D0FFE712
:204A400001980068C06800F400000021B1EBD05F09D0FFE7019800686FF40001016101982E
:204A6000FFF730FCFFE7FFE702B080BD80B588B007900020069005900490039002900798B2
:204A8000006842F60041C4F2010188421FD1FFE7FFE741F24C00C4F20200016841F0040121
:204AA0000160006800F0040001900198FFE70120029002200390002104910591069040F6A9
:204AC0000000C4F6000002A9FDF796FB23E007980068B0F1804F1DD1FFE7FFE741F24C0039
:204AE000C4F20200016841F001010160006800F0010000900098FFE7012002900221039130
:204B0000002104910591069002A94FF09040FDF773FBFFE7FFE708B080BD000081B0009015
:204B200001B0704780B584B040F2DC20C2F20000029008200190029818B9FFE70120039072
:204B40002EE00298006C38B9FFE702980021C163029800F029F8FFE702980221016402993D
:204B600051F8040B02F0B2F802980068016821F0080101600198029909680A681043086089
:204B800002980121C16602984164029881640298C165029801660298016400200390FFE71B
:204BA000039804B080BD000081B0009001B0704780B586B004900391002002900190FFE784
:204BC0000498C06B012803D1FFE702200590B9E004980121C163FFE7FFE70298142800F265
:204BE000A680DFE800F00BA4A4A424A4A4A43EA4A4A457A4A4A471A4A4A48A000498006879
:204C0000039902F07DF904980068816941F00801816104980068816921F004018161039805
:204C20000069049909688A691043886182E004980068039902F01EFA04980068816941F49F
:204C40000061816104980068816921F48061816103980069049909688A6942EA0020886111
:204C600068E004980068039902F0C6FA04980068C16941F00801C16104980068C16921F0D1
:204C80000401C1610398006904990968CA691043C8614FE004980068039902F06FFB049865
:204CA0000068C16941F40061C16104980068C16921F48061C1610398006904990968CA691F
:204CC00042EA0020C86135E004980068039902F017FC04980068016D41F0080101650498F7
:204CE0000068016D21F00401016503980069049909680A6D104308651CE00498006803997D
:204D000002F070FC04980068016D41F40061016504980068016D21F48061016503980069F5
:204D2000049909680A6D42EA0020086502E001200190FFE7FFE704980021C163FFE7019875
:204D40000590FFE7059806B080BD000080B582B00090009818B9FFE70120019035E00098A3
:204D6000006C38B9FFE700980021C163009800F02FF8FFE7009802210164009951F8040B6D
:204D800001F0A4FF00980121C166FFE7009801214164009881640098C16400980165009889
:204DA000416500988165FFE7FFE700980121C165009801660098416600988166FFE70098E8
:204DC0000121016400200190FFE7019802B080BD81B0009001B0704781B0009001B07047DB
:204DE00081B000900098006842F60041C4F2010188420BD1FFE740F2E610C2F200000078E1
:204E0000C00708B9FFE700E0FFE7FFE701B0704780B584B040F26C21C2F20001029101900F
:204E2000FFE70298C06B012803D1FFE7022003902FE002980121C163FFE7FFE702980221B7
:204E400001640298019902F03FFC58B1FFE7029801210164FFE702980021C163FFE70120B0
:204E6000039016E002980068C16821F04001C16002980068C16821F48041C160029801212D
:204E80000164FFE702980021C163FFE700200390FFE7039804B080BD81B0009001B07047B4
:204EA00083B040F24C30C2F200000190FFE70198D0F88000012803D1FFE7022002902BE063
:204EC00001980121C0F88010FFE7FFE701982421C0F88410019800680068009001980068DF
:204EE000016821F001010160009820F0005000900198002141660098019909680860019848
:204F00002021C0F88410FFE701980021C0F88010FFE700200290FFE7029803B0704700009A
:204F200082B00190ADF8021002B0704781B0009001B0704780B584B040F24C30C2F200009A
:204F4000029000200190FFE70298D0F88000012803D1FFE70220039031E002980121C0F829
:204F60008010FFE7FFE702982421C0F88410029800680068009002980068016821F0010132
:204F8000016002980068806820F0606001990843029909688860029802F0AAFC00980299B8
:204FA0000968086002982021C0F88410FFE702980021C0F88010FFE700200390FFE70398EE
:204FC00004B080BD80B584B040F24C30C2F20000029000200190FFE70298D0F880000128E1
:204FE00003D1FFE70220039031E002980121C0F88010FFE7FFE702982421C0F8841002989C
:2050000000680068009002980068016821F00101016002980068806820F0604001990843D2
:20502000029909688860029802F062FC009802990968086002982021C0F88410FFE70298DF
:205040000021C0F88010FFE700200390FFE7039804B080BD81B0009001B0704781B00090F2
:2050600001B0704781B0009001B0704780B590B00F900F980068C0690E900F98006800683E
:205080000D900F98006880680C900E9840F60F0108400B900B98E0B9FFE79DF8380080069C
:2050A000002815D5FFE79DF834008006002806D4FFE79DF83300C006002809D5FFE70F98A0
:2050C000006F20B1FFE70F98016F8847FFE76DE2FFE70B98002800F00881FFE70C980121B9
:2050E000C1F20001084209D1FFE70D9840F22011C0F20041084200F0F880FFE79DF8380092
:20510000C00788B1FFE79DF83500C00760B1FFE70F980068012101620F98D0F88C1041F051
:205120000101C0F88C10FFE79DF838008007002811D5FFE79DF83000C00760B1FFE70F98C1
:205140000068022101620F98D0F88C1041F00401C0F88C10FFE79DF838004007002811D5C4
:20516000FFE79DF83000C00760B1FFE70F980068042101620F98D0F88C1041F00201C0F838
:205180008C10FFE79DF838000007002819D5FFE79DF834008006002807D4FFE70C980121BF
:2051A000C1F2000108420CD0FFE70F980068082101620F98D0F88C1041F00801C0F88C10FB
:2051C000FFE79DF839000007002813D5FFE79DF83700400700280DD5FFE70F9800684FF4C9
:2051E000006101620F98D0F88C1041F02001C0F88C10FFE70F98D0F88C00002874D0FFE707
:205200009DF838008006002815D5FFE79DF834008006002806D4FFE79DF83300C006002856
:2052200009D5FFE70F98006F20B1FFE70F98016F8847FFE7FFE70F98D0F88C000A900F98EF
:205240000068806800F04000402806D0FFE79DF8280010F0280F3ED0FFE70F9802F08CFCA1
:205260000F9800688068400600282FD5FFE7FFE7FFE70F98006850E8020F20F040000990D2
:20528000FFE709980F99096841E80202002AF0D1FFE7FFE70F98C06F98B1FFE70F98C06FAF
:2052A00047F65531C0F60001C1630F98C06FFCF7C5FD28B1FFE70F98C06FC16B8847FFE74F
:2052C00003E00F98FFF7CEFEFFE703E00F98FFF7C9FEFFE707E00F98FFF7C4FE0F98002161
:2052E000C0F88C10FFE7FFE760E10F98C06E012840F0FD80FFE79DF83800C006002840F1D0
:20530000F680FFE79DF83400C006002840F1EF80FFE70F980068102101620F98006880685A
:205320004006002840F18480FFE70F98C06F00684068ADF82200BDF82200002877D0FFE70B
:20534000BDF822000F99B1F85C1088426FDAFFE7BDF822000F99A1F85E000F98C06F00680C
:2053600000688006002858D4FFE7FFE7FFE70F98006850E8000F20F480700790FFE70798C3
:205380000F99096841E80002002AF0D1FFE7FFE7FFE7FFE70F98006850E8020F20F00100DD
:2053A0000690FFE706980F99096841E80202002AF0D1FFE7FFE7FFE7FFE70F98006850E8C3
:2053C000020F20F040000590FFE705980F99096841E80202002AF0D1FFE7FFE70F9820216F
:2053E000C0F888100F980021C166FFE7FFE70F98006850E8000F20F010000490FFE7049816
:205400000F99096841E80002002AF0D1FFE7FFE70F98C06FFCF7CAFCFFE70F98B0F85C1061
:20542000B0F85E20891A89B2FFF77AFDFFE7BDE00F98B0F85C10B0F85E00081AADF80E00E2
:205440000F98B0F85E00002850D0FFE7BDF80E0000284BD0FFE7FFE7FFE70F98006850E872
:20546000000F20F490700290FFE702980F99096841E80002002AF0D1FFE7FFE7FFE7FFE730
:205480000F98006850E8020F4FF6FE71CEF6FF7108400190FFE701980F99096841E802022E
:2054A000002AEDD1FFE7FFE70F982021C0F888100F980021C1660F980167FFE7FFE70F988F
:2054C000006850E8000F20F010000090FFE700980F99096841E80002002AF0D1FFE7FFE7F4
:2054E0000F98BDF80E10FFF71BFDFFE75EE09DF83A00C00600280FD5FFE79DF8320040066C
:20550000002809D5FFE70F9800684FF4801101620F98FFF7A3FD49E09DF8380000060028F8
:2055200015D5FFE79DF834000006002806D4FFE79DF832000006002809D5FFE70F98406FD5
:2055400020B1FFE70F98416F8847FFE72EE09DF83800400600280AD5FFE79DF8340040066B
:20556000002804D5FFE70F9802F056FB1EE09DF83A00000600280AD5FFE79DF83700400688
:20558000002804D5FFE70F98FFF764FD0EE09DF83B00C00750B1FFE79DF8370000060028C0
:2055A00004D5FFE70F98FFF7C1FCFFE710B080BD80B582B040F24C30C2F2000000900098FE
:2055C00018B9FFE70120019044E00098806908B1FFE700E0FFE70098D0F8840040B9FFE795
:2055E00000980021C0F88010009800F037F8FFE700982421C0F8841000980068016821F06A
:2056000001010160009802F00DFF012803D1FFE7012001901EE00098806A20B1FFE700982D
:2056200002F0AAF9FFE700980068416821F49041416000980068816821F02A018160009821
:205640000068016841F001010160009802F038FA0190FFE7019802B080BD000080B59EB0A7
:205660001D9000201C901B901A901990189003A85421FBF77AF81D98006848F20001C4F279
:20568000000188423ED1FFE7202003900020099003A8FDF7EFFB10B1FFE7FBF75BFAFFE761
:2056A00041F25C00C4F20200016841F001010160006800F0010002900298FFE7FFE741F222
:2056C0004C00C4F20200016841F001010160006800F0010001900198FFE70C201890022169
:2056E000199100211A911B911C9018A94FF09040FCF782FD5B200021FDF7C2FA5B20FDF7DF
:20570000B7FAFFE71EB080BD80B586B040F24C30C2F20000049040F2E510C2F20000039018
:205720000120ADF80A000498D0F8880020284BD1FFE7039820B1FFE7BDF80A0018B9FFE79B
:205740000120059043E0FFE70498D0F88000012803D1FFE70220059039E004980121C0F87D
:205760008010FFE7FFE704980021C1660498006848F20001C4F2000188421CD0FFE70498BB
:20578000006840680002002814D5FFE7FFE7FFE70498006850E8000F40F080600190FFE762
:2057A00001980499096841E80002002AF0D1FFE7FFE7FFE7FFE704980399BDF80A2003F08A
:2057C000D3F80020059002E002200590FFE706B080BD000080B582B001900198006848F2A4
:2057E0000001C4F2000188424AD1FFE740F2E510C2F2000000784F281CD1FFE740F2E51062
:20580000C2F200000021017040F20000C2F2000042F694210180008846F69401C4F20101DD
:20582000086049F62B20C0F600000A21642200F02BF824E040F2E510C2F20000007842283B
:205840001CD1FFE740F2E510C2F200000021017040F20000C2F2000043F68C410180008813
:2058600046F69401C4F20101086049F62520C0F600000421642200F007F8FFE7FFE7FFE7B1
:20588000FFF742FF02B080BD80B588B040F24C33C2F2000306930590ADF8121003920698E5
:2058A000D0F88400202840F08B80FFE7059820B1FFE7BDF8120018B9FFE70120079082E047
:2058C000FFE70698D0F88000012803D1FFE70220079078E006980121C0F88010FFE7FFE734
:2058E00006980021C0F88C1006982121C0F88410FCF744FE0090BDF812000699A1F8540051
:20590000BDF812000699A1F8560006988068B0F5805F09D1FFE70698006928B9FFE700207A
:2059200002900598019004E00598029000200190FFE7FFE706980021C0F88010FFE7FFE744
:205940000698B0F8560048B3FFE70698009A039B802103F025F918B1FFE70320079032E0C7
:20596000029858B9FFE7019800886FF35F2006990968886201980230019008E00298007844
:20598000069909688862029801300290FFE70698B0F856100139A0F85610D1E70698009AF6
:2059A000039B402103F0FCF818B1FFE70320079009E006982021C0F884100020079002E0EB
:2059C00002200790FFE708B080BD000081B0009001B0704782B0019000910098062844D8D4
:2059E000DFE800F00D161F28313A040001980068D0F8841341F00101C0F8841336E0019886
:205A00000068D0F8841341F00201C0F884132DE001980068D0F8841341F00401C0F884134A
:205A200024E001980068D0F8841341F00801C0F884131BE001980068D0F8841341F01001DC
:205A4000C0F8841312E001980068D0F8841341F02001C0F8841309E001980068D0F88413BB
:205A600041F04001C0F8841300E0FFE702B0704783B002900191029800680068009000984D
:205A800020F00700009001988068009908430090009820F0180000900198C0680099084375
:205AA00000900098029909680860019800680299096848610198406802990968886103B0AB
:205AC0007047000084B003900291039800680068019003980068D0F8A0030090019820F012
:205AE0002000019002984069019908430190019820F0C000019002984069202805D0FFE7FC
:205B000002988069022809D1FFE7019820F0C0000190019840F02000019026E0029880691B
:205B2000032809D1FFE7019840F040000190019820F08000019017E002988069042809D1A6
:205B4000FFE7019840F080000190019820F04000019008E0019820F020000190019820F020
:205B6000C0000190FFE7FFE7FFE7019820F4006001900298C069019908430190019820F49E
:205B8000806001900298006A019908430190019820F0C06001900298406A01990843019006
:205BA000019820F0006001900298806A019908430190019820F0404001900298C06A019939
:205BC00041EA80000190019820F0005001900298406B019908430190009820F48030009058
:205BE0000298006B0099084300900198039909680860009803990968C1F8A00304B07047B2
:205C000087B006900591049203930020009006980068059900EBC110D0F8E4000290069809
:205C20000068059900EBC110D0F8B80001900498012825D0FFE7022835D0FFE704281FD0C1
:205C4000FFE708282FD0FFE7102819D0FFE7202829D0FFE7402813D0FFE7802823D0FFE769
:205C6000B0F5807F0CD0FFE7B0F5007F1BD0FFE7B0F5806F04D0FFE7B0F5006F13D027E07D
:205C80000398406806990968059A01EBC211C1F8BC000398806806990968059A01EBC211ED
:205CA000C1F8C00015E00398406806990968059A01EBC211C1F8C4000398806806990968B5
:205CC000059A01EBC211C1F8C8001020009000E0FFE70098FE2101FA00F0029921EA000017
:205CE000029003980068009988400299084302900398C068009988400299084302900398FF
:205D0000006900998840029908430290039840690099884002990843029003988069009907
:205D2000884002990843029003980069082814D1FFE79DF80500800700280ED4FFE79DF87E
:205D400007008007002808D4FFE70398C06900998840029908430290FFE70298069909689E
:205D6000059A01EBC211C1F8E40007B07047000084B003900291019203980068029900EB44
:205D8000C110D0F880000090009820F00700009001988068009908430090009820F0180066
:205DA00000900198C068009908430090009803990968029A01EBC211C1F8800001980068E4
:205DC00003990968029A01EBC211C1F894000198406803990968029A01EBC211C1F8980014
:205DE00004B0704788B007900691059207980068069900EBC110D0F8801021F07041C0F807
:205E0000801007980068069900EBC110D0F88000049007980068069900EBC110D0F8E800A2
:205E2000039007980068069900EBC110D0F8E400029007980068D0F8A0030090049820F081
:205E4000200004900598406904990843049005984069202805D0FFE705988069022809D1F9
:205E6000FFE7049820F4C0700490049840F02000049026E005988069032809D1FFE7049835
:205E800040F080000490049820F48070049017E005988069042809D1FFE7049840F4807061
:205EA0000490049820F08000049008E0049820F020000490049820F4C0700490FFE7FFE706
:205EC000FFE7049820F4006004900598C069049908430490049820F4806004900598006ACB
:205EE000049908430490049820F0C06004900598406A049908430490049820F00060049063
:205F00000598806A049908430490049820F0704004900598C06A049908430490049820F49B
:205F2000003004900598406BB0F1005F05D1FFE7049840F400300490FFE7049820F0400033
:205F400004900598806B049908430490049820F4802004900598806D049908430490049823
:205F60004FF6FF71CFF60661084004900598006D049908430490039820F03F0003900598C4
:205F8000C06B00F03F00039908430390039820F0004003900598006C039908430390029892
:205FA00020F4807002900598406C0299084302900598806CB0F5606F06D0FFE70598806C48
:205FC000B0F5F05F05D1FFE70598806B40280AD1FFE7029820F4F05002900598806C0299BC
:205FE00008430290FFE7029820F4804002900598C06C0299084302900598406D0190069824
:020000040800F2
:20600000052846D8DFE800F0030E19242F3A009820F4003000900598006B009941EA40004F
:20602000009037E0009820F4802000900598006B009941EA800000902CE0009820F4002029
:2060400000900598006B009941EAC000009021E0009820F4801000900598006B009941EAFB
:206060000010009016E0009820F4001000900598006B009941EA401000900BE0009820F4FB
:20608000800000900598006B009941EA8010009000E0FFE7049807990968069A01EBC21132
:2060A000C1F88000039807990968069A01EBC211C1F8E800029807990968069A01EBC211F1
:2060C000C1F8E400019807990968069A01EBC211C1F8D400009807990968C1F8A00308B0D0
:2060E0007047000084B003900291019203980068029900EBC110D0F8EC000090009820F0B6
:206100001000009001980068009941EA00100090009820F480100090019840680099084389
:206120000090009820F4803000900198C068009908430090009820F40030009001988068C1
:206140000099084300900198806901281CD1FFE7009820F00400009001980069009908432B
:206160000090009820F00200009001984069009908430090009820F00100009001988069E4
:20618000009908430090FFE7009803990968029A01EBC211C1F8EC0004B07047FFE7FEE7CA
:2061A00081B00090009880684FF6C071C7F6FF71084002300099886001B0704781B00090D7
:2061C000009881684FF6C072C5F6FF721140816001B0704781B00090009880684FF6C0714A
:2061E000C7F6FF71084001300099886001B0704781B000900098806840F080504FF6C07159
:20620000C7F6FF7108400099886001B07047000081B000900098806800F0E07001B0704737
:2062200081B000900098806800F01F0001B0704783B0029001910298019900EB810060301F
:2062400000900098006800F0F84003B07047000081B0009000988068C0F3C00001B0704700
:2062600081B00090009880684FF6C071C7F6FF71084020300099886001B0704781B00090F8
:2062800000988068C0F3407001B0704781B0009000988068C0F3400001B0704781B0009056
:2062A0000098806800F0010001B0704781B000900098806800F0010001B0704781B00090AA
:2062C00000988068C0F3007001B0704781B0009000988068C0F3800001B0704781B0009016
:2062E00000988068C0F3800001B0704784B00390029101920398029901F4407100EB91102E
:206300003030009000980068029901F01F011F228A409043019AC2F3846202FA01F1084394
:206320000099086004B0704781B00090009880684FF6C071C7F6FF71084004300099886010
:2063400001B0704781B00090009880684FF6C071C7F6FF71084010300099886001B0704780
:2063600084B00390029101920398029901F0007100EBD15014300090009800680299C1F369
:20638000045107228A409043019A02FA01F108430099086004B0704783B0029001910092B9
:2063A00000980021C4F27F0188420AD1FFE701986FF3DF400299D1F8B0201043C1F8B00059
:2063C0000CE001980021CFF6F87161EA00000299D1F8B0201040C1F8B000FFE703B0704761
:2063E00082B0019000910198806820F47C10009908430199886002B07047000082B0019096
:2064000000910198806820F0E070009908430199886002B07047000085B00490039102924A
:2064200001930498039900EB810060300090009800684FF20001C0F2FF310840029901F00C
:20644000F841019A1143084340F000400099086005B0704784B003900291019203980299C9
:2064600000EB8100603000900098006820F00070019908430099086004B0704784B00390F8
:20648000029101920398029900EB8100603000900098006820F0807001990843009908602E
:2064A00004B0704784B003900291002001900398029900EB8100603000900098006820F094
:2064C0000040019908430099086004B07047000082B0019000910198406920F000400099AC
:2064E00008430199486102B07047000080B540F24C30C2F20000FEF7B9FD80BD80B58CB0B5
:2065000000200B900A9009900890079006900590049003900290019040F21001C2F20001F1
:206520004FF0A0420A604FF440324A608860C8600861486104228A61C86101220A624A62DA
:20654000886208634863CA6308644864FBF78EF810B1FFE7FAF7FEFA0020099009A8FAF793
:2065600001FB10B1FFE7FAF7F5FA0420C0F66000019006200290042003907F210491059094
:206580000020069001A8FAF73FFC10B1FFE7FAF7E1FA0CB080BD000080B582B0FFE741F284
:2065A0004800C4F20200016841F004010160006800F0040001900198FFE7FFE741F248000E
:2065C000C4F20200016841F001010160006800F0010000900098FFE70B200021FCF750FB15
:2065E0000B20FCF745FB02B080BD0000B0B58AB0002009900890079006900590FFE741F283
:206600004C00C4F20200016841F004010160006800F0040004900498FFE7FFE741F24C009F
:20662000C4F20200016841F020010160006800F0200003900398FFE7FFE741F24C00C4F2DF
:206640000200016841F001010160006800F0010002900298FFE7FFE741F24C00C4F20200B3
:20666000016841F002010160006800F0020001900198FFE7FBF76AFF4FF4005005904FF4EC
:20668000881006900025079540F60000C4F6000005AC2146FBF7B0FD2020059001200690D8
:2066A000079508954FF090402146FBF7A5FD28200021FCF7E5FA2820FCF7DAFA0AB0B0BD26
:2066C00010B5ACB000242B942A9429942894279426942594249423942294219409A8602145
:2066E000FAF743F80894079406940594049403940294019440F2E400C2F2000046F60001A3
:20670000C4F20101016044608460FBF795FF10B1FFE7FAF71FFAFBF737FF10B1FFE7FAF7E1
:2067200019FAFCF7B1F810B1FFE7FAF713FA4FF6DF702890002029902A9008202B9028A873
:20674000FCF7E2F810B1FFE7FAF704FA00202190279021A8FCF7DAF910B1FFE7FAF7FAF934
:20676000002009900A900B900C9001210D910E900F9010901190129013901490159016901D
:206780001790189019901A901B901D901E901F90209009A8FCF726F910B1FFE7FAF7DAF9C4
:2067A00000200190029003900490059006900790089001A90120FCF7D7F810B1FFE7FAF7F0
:2067C000C9F901A90220FCF7CFF810B1FFE7FAF7C1F9FCF721F82CB010BD000080B540F203
:2067E0004C30C2F2000048F20001C4F2000101604FF4E131416000218160C16001610C226D
:2068000042618161016241628162FEF7D1FE10B1FFE7FAF79FF9FEF7D5FB10B1FFE7FAF7B9
:2068200099F9FEF787FB10B1FFE7FAF793F9FEF737FB10B1FFE7FAF78DF980BD10B59CB098
:2068400000241B941A9419941894179416941594149413941294119410940F940E9401A834
:206860003421F9F782FF40F2FC10C2F2000042F60041C4F201010160A921416084604FF43C
:206880007A71C160046144618461FDF71FFD10B1FFE7FAF75FF94FF48050189040F2FC1004
:2068A000C2F2000018A9FDF72BFE10B1FFE7FAF751F940F2FC10C2F20000FEF747FA10B17B
:2068C000FFE7FAF747F950201590002016908020179040F2FC10C2F2000015A9FDF740FC9F
:2068E00010B1FFE7FAF736F960200E9000200F901090119012901390149040F2FC10C2F2D8
:2069000000000EA9FEF754F910B1FFE7FAF722F90020019002900390049005904FF4005138
