:020000040800F2
:1000000070080020790200085D3100084D2B0008BF
:100010005931000875050008393E0008000000004D
:10002000000000000000000000000000D9310008BE
:1000300045060008000000008D3100080D32000860
:10004000930200089302000893020008930200083C
:10005000930200089302000893020008930200082C
:100060009302000893020008930200087905000833
:10007000930200089302000893020008930200080C
:1000800093020008930200089302000893020008FC
:1000900093020008930200089302000893020008EC
:1000A00093020008930200089302000893020008DC
:1000B00093020008930200089302000893020008CC
:1000C00093020008930200089302000893020008BC
:1000D00093020008930200089302000893020008AC
:1000E00049060008930200089302000893020008E2
:1000F000930200089302000893020008930200088C
:10010000930200089302000893020008930200087B
:10011000930200089302000893020008930200086B
:10012000930200089302000893020008930200085B
:10013000930200089302000893020008930200084B
:10014000930200089302000893020008930200083B
:10015000930200089302000893020008930200082B
:10016000930200089302000893020008930200081B
:10017000930200089302000893020008930200080B
:1001800093020008930200089302000893020008FB
:100190009302000800000000930200089302000888
:1001A00093020008930200089302000893020008DB
:1001B00093020008930200089302000893020008CB
:1001C00093020008930200089302000893020008BB
:1001D000930200089302000800F002F800F03CF8D7
:1001E0000AA090E8000C82448344AAF10107DA4592
:1001F00001D100F031F8AFF2090EBAE80F0013F0A8
:10020000010F18BFFB1A43F001031847943D00008B
:10021000B43D0000103A24BF78C878C1FAD852071C
:1002200024BF30C830C144BF04680C607047000070
:100230000023002400250026103A28BF78C1FBD8EF
:10024000520728BF30C148BF0B6070471FB503F08D
:1002500079FE1FBD10B510BD00F0D0F81146FFF7B4
:10026000F5FF03F025FE00F0EEF803B4FFF7F2FF10
:1002700003BC00F0F5F80000094880470948004732
:10028000FEE7FEE7FEE7FEE7FEE7FEE7FEE7FEE746
:10029000FEE7FEE704480549054A064B70470000A3
:1002A00081320008D9010008700200207008002087
:1002B000700400207004002053EA020C00F06980F2
:1002C0002DE9F04B4FF00006002B1FBFB3FA83F56A
:1002D00003FA05F424FA05F65E4012BF1643B2FA9B
:1002E00082F502FA05F4C5F120051EBF22FA05FCCD
:1002F00044EA0C04203556EA044C4FEA144418BF73
:10030000641C4FF000084FF00009904271EB030CA1
:1003100039D3002919BFB1FA81F701FA07F6B0FA0B
:1003200080F700FA07F6C7F120071EBF20FA07FC86
:1003300046EA0C062037B6FBF4FCA7EB0507103F96
:1003400007F01F0BCBF120062CFA06F60CFA0BFB7C
:1003500044BFB3460026202FA4BF5E464FF0000BDB
:100360005BEA060C08BF4FF0010B19EB0B0948EBD9
:100370000608ABFB027C06FB02CC0BFB03CCC01BCC
:1003800071EB0C01C1E70B46024641464846BDE809
:10039000F08B13B5084318BF4FF0FF300146AFF3A1
:1003A0000080BDE81C4070474FF0000200B51346C6
:1003B00094469646203922BFA0E80C50A0E80C5085
:1003C000B1F12001BFF4F7AF090728BFA0E80C5036
:1003D00048BF0CC05DF804EB890028BF40F8042B2F
:1003E00008BF704748BF20F8022B11F0804F18BF9C
:1003F00000F8012B7047704770477047754600F052
:100400002BF8AE4605006946534620F007008546A6
:1004100018B020B5FFF73EFFBDE820404FF00006C2
:100420004FF000074FF000084FF0000BAC46ACE86F
:10043000C009ACE8C009ACE8C009ACE8C00921F0CB
:1004400007018D46704710B50446AFF30080204683
:10045000BDE81040FFF709BF0048704710000020BA
:1004600001491820ABBEFEE72600020070470000DD
:1004700010B5846AE26DE16D12F0500F05D0C90627
:100480000ED4616D496B884710BD41F40070E06582
:1004900020680168090707D4C068800716D40AE0FD
:1004A000204600F061FB10BD02F098FB70B120689F
:1004B000C06880040AD4E06D20F48070E065E06DCF
:1004C000C00403D4E06D40F00100E065204600F078
:1004D00047FB10BD80B5806AC16D41F04001C16528
:1004E000016E41F00401016600F03EFB80BD00009A
:1004F00080B5806A00F036FB80BD0000B0B50446D0
:10050000006802F057FB08B10020B0BD20683F2210
:100510008168C8F20002114209D0E06D40F010007D
:10052000E065206E40F0010020660120B0BD02F0C1
:1005300017FB00F02FFF21680A68D2071CBF0020BC
:10054000B0BD054604E000BF21680868C007DBD1E4
:10055000084602F02FFB10B9206802F001FB00F002
:1005600019FF401B0328EFD320680068C007EBD1B8
:10057000D3E70000FEE7000080B540F2E000C2F2E1
:10058000000000F005FD80BD80B501686FF0070236
:100590004CF6CD4352FA81F2CCF6CC43A2FB032CAD
:1005A00040F20842C4F20202D0F844E002F583634C
:1005B000914238BF02F57E732EF00301194402F513
:1005C0008F6ECCF3041301229A40C0E9121E02651B
:1005D00080BD0000017940F600120139C4F2020228
:1005E00002EB810302F1400C01F01F01012202FA2B
:1005F00001F1C0E9153CC1657047000070B5D0E954
:1006000013C4D0F854E0CCF80440BEF1000F1CBF76
:10061000D0E916C4CCF80440D0E9106E0468D0F8D4
:1006200008C00EF01F00012505FA00F070600846B2
:100630006360BCF1100F04BF10460A46A060E26080
:1006400070BD00007047000080B54FF4005000F00E
:10065000BDFD80BDEFF3108072B600BFFEE7000065
:100660002DE9F04383B0044690F85800012803D1E7
:10067000022003B0BDE8F0830E460120002184F87B
:10068000580002910191206840F20015B0F1A04F8E
:10069000C5F200050AD040F20041C5F200018842CF
:1006A00007D105F58060002131B10EE0284619B16F
:1006B0000BE00020012141B902F08CFA21680746C5
:1006C000084602F087FA38430AD0E06D40F0200077
:1006D000E0650120002184F8581003B0BDE8F083E4
:1006E00020684FF4C1673168A84208BF4FF4027711
:1006F000B0F1A04F08BF4FF40277EA59002922F465
:10070000604118D0726894F83830114340F480701A
:1007100041EA4331A842E9511CD14FF0A04002F018
:100720004DFA8146284602F049FA804658EA090007
:1007300023D00020CEE740F48070A842E95125D1B3
:100740004FF0A04002F03AFA0646284602F036FA88
:1007500080462BE005F5407002F030FA804605F542
:10076000806002F02BFA48EA000805F5A06002F06C
:1007700025FA814658EA0900DBD1E85940F61F7195
:1007800088433168B2680843104318E005F54070AB
:1007900002F014FA064605F5806002F00FFA40EA0E
:1007A000060805F5A06002F009FA064658EA0600B8
:1007B00001D000208EE7E85940F61F718843E851C8
:1007C000002087E72DE9F04182B004460020019027
:1007D00094F85800012801D10221BCE120680D469F
:1007E000012184F8581002F0F1F928B1E06D0121DF
:1007F00040F02000E065ABE12068D5E9002102F07F
:10080000F5F9206802F0E2F921680646084602F090
:10081000C9F9304340F0B880AB68296803F1004063
:10082000B0FA80F047092068B3F1004218BF1A46B9
:10083000FE0702F0F9F92068314602F04DFA20680F
:1008400029696B69C268042940F088804FF6FF77F8
:100850000021C0F2070702F09FF92168064608460A
:10086000002102F099F9720390FAA0F12A68B1FA16
:1008700081F108BFC0F3846192FAA2F0B0FA80F06F
:10088000530308BFC2F38460814203D12068002172
:1008900002F01AFA2068012102F07EF9216806466A
:1008A0000846012102F078F990FAA0F12A68B1FA1D
:1008B00081F13E4208BFC0F3846192FAA2F0B0FA1F
:1008C00080F03A4208BFC2F38460814203D12068BD
:1008D000012102F0F9F92068022102F05DF9216896
:1008E00006460846022102F057F990FAA0F12A685C
:1008F000B1FA81F13E4208BFC0F3846192FAA2F0DE
:10090000B0FA80F03A4208BFC2F38460814203D15A
:100910002068022102F0D8F92068032102F03CF996
:10092000216806460846032102F036F990FAA0F144
:100930002A68B1FA81F13E4208BFC0F3846192FA9D
:10094000A2F0B0FA80F03A4208BFC2F3846081425C
:100950001AD12068032102F0B7F915E0062707EA4B
:1009600092072A68BB4002F08DF920682969AA69BC
:1009700002F0A2F92A7F2068013AB2FA82F22969CC
:100980005209520602F090F9206802F013F900288B
:100990004DD120682968EA6802F058F9E86800211A
:1009A000C4F27F01884242D1D5F800E04FF0806167
:1009B0009EFAAEF27346B2FA82F76FF3DF433A461D
:1009C0002068002B08BF4FEA9E62561C01EB826133
:1009D00006F01E0C01F0F84206F01F010126BCF1E2
:1009E000090F06FA01F60DD842EA0601002B08BFEE
:1009F0004FEA9E677A1C02F01F0202EB420241EAB4
:100A0000025111E0002B08BF4FEA9E67791C01F0EC
:100A10001F01002301EB4101CFF6206303EB0151DD
:100A20003243114341F00071AA6802F0FDF8688872
:100A300048F20801084274D040F20036C5F20006C0
:100A4000216806F58067A6F500783846414504BF61
:100A500040F20030C5F20000B1F1A04F04BF40F2F7
:100A60000030C5F2000002F08FF829680022CCF2B5
:100A70002132914204D01022C9F2C002914234D1F5
:100A8000020232D4216840F20062C5F200029142B3
:100A900002D0B1F1A04F44D1414508BF3746B1F172
:100AA000A04F08BF374640F40001384602F0E4F892
:100AB00040F20000C2F20000006842F66351800973
:100AC000C0F23E51A0FB0101880900EB40000C215F
:100AD00001EB80000190019818B300BF0198013824
:100AE000019001980028F9D11BE00022CCF252724B
:100AF000914208BF10F0807215D00022CCF68432EB
:100B000091424FF0000108BF10F4800220D121680B
:100B1000B1F1A04F16D040F20012C5F2000291428E
:100B20000DD1002114E02168414508BF3746B1F1DD
:100B3000A04F08BF374640F08071384605E0414578
:100B400018BF3E4640F48001304602F095F800217F
:100B5000002084F85800084602B0BDE8F08100008B
:100B60007047000070470000704700002DE9F04119
:100B700082B0044600200190CCB1E06D30B920462F
:100B800000F00CF90020206684F85800206802F07C
:100B90000DF810B1206801F0DBFF206802F012F8B8
:100BA00038B1206802F00EF8E8B1002524E00125F4
:100BB000DBE0206801F0DEFF40F20000C2F200003E
:100BC000006842F663518009C0F23E51A0FB01016A
:100BD0008809022101EB4000019001980028E0D033
:100BE00001980138F8E7E06D012540F01000E0655C
:100BF000206E40F001002066206801F0E7FFE16D03
:100C000001F010010843E06D03D040F01000012511
:100C1000AAE020F481700230E065206801F0CAFF8C
:100C200020BB206840F20018C5F2000840F4807034
:100C3000404540F09E804FF0A04001F0BBFF0646CB
:100C4000404601F0B7FF074657EA06000ED108F507
:100C50000072D4E900311046434518BF08F5C06062
:100C6000B3F1A04F08BF104602F000F8607FE16BBF
:100C700041EA4030D4E90221084394F8241010439B
:100C8000012940EA014106D1A06A0022CFF6FE7296
:100C900002EB40400143E06A28B100F47870226B17
:100CA000084340EA02012068626BC36844F2070708
:100CB000CFF6F0773B401943C160016921F04061F4
:100CC0001143016101F082FF21680646084601F0E8
:100CD00069FF304339D194F83800217F400040EA61
:100CE000813220682169C36844F20207BB431A437A
:100CF000C260026949B142F480320261D0F8C0207A
:100D000043F6FF739A43114307E022F480310161F7
:100D1000D0F8C01043F6FF729143C0F8C01094F8A9
:100D200040200169012A0DD140F2FD7204F144070F
:100D300091438CCF266D114319433943314341F020
:100D4000010101E021F00101016120686169026B8C
:100D5000012922F00F0102D1226A013A11430163F5
:100D6000E06D012161F30100E065284602B0BDE8B5
:100D7000F08108F5407001F01DFF064608F580601F
:100D800001F018FF40EA060708F5A06001F012FF25
:100D9000064657EA06007FF469AF58E770B59CB085
:100DA000044600201B90CDE91900CDE9170002A8E8
:100DB0005421FFF7F9FA2068B0F1A04F01D01CB020
:100DC00070BD4FF4004002904FF00050139002A805
:100DD00000F0E6FB002818BFFFF73CFC41F24C0096
:100DE000C4F202000168002641F40051016001686C
:100DF00001F4005101910199016841F00101016084
:100E0000006817A900F001000190019802201790D6
:100E1000032018904FF09040199600F0E5F940F249
:100E2000E0050820C2F20005C4F2020005214FF4DB
:100E3000807385E8430005F1140080224FF4806C34
:100E40004FF0200E80E808502846C5E903622E6264
:100E500000F0F4F8002818BFFFF7FCFB6565AC62F2
:100E60001CB070BD2DE9F04381B040F20016C5F210
:100E7000000690468946016806F500720446104651
:100E8000B14218BF06F5C060B1F1A04F08BF1046CF
:100E900001F07EFE21680746084601F097FE08B182
:100EA000022571E094F85800012801D102256BE079
:100EB000216806F5A0620120914284F8580007D00D
:100EC000092F22D80120B84040F2212108421CD02D
:100ED0002046FFF713FB20B10546002084F8580098
:100EE00052E02168E06D40F60172904300F5807099
:100EF000B142E0650ED040F20050C5F200008142E0
:100F0000084608BF06F5407006E00020012584F879
:100F1000580039E04FF0A040002F18BF884203D19D
:100F2000E06D20F48010E065E06D40F27143C00494
:100F30004FF0000044BF206E20F006002066606D78
:100F400040F2F147C0F60003C0F6000740F2D54674
:100F50000022C0F60006C0E90B371C2346630B6075
:100F600084F858204A68434642F010024A60CA6832
:100F700042F00102CA6040314A4600F0CBF82168D5
:100F80000546084601F046FE284601B0BDE8F0835C
:100F9000B0B50268D0E910C4DCF80050136804F062
:100FA0001F0E590712D5042101FA0EF414EA0501A7
:100FB0000CD01168890603D4116821F00401116076
:100FC000CCF80440016BB9B38847B0BD990718D578
:100FD000022101FA0EF414EA050112D01168890603
:100FE00006D4116821F00A011160012180F8251052
:100FF000CCF80440C16A002280F82420E1B188477F
:10100000B0BD190758BFB0BD082101FA0EF1294043
:1010100012D0116821F00E011160012101FA0EF2C7
:10102000CCF80420C16380F82510416B0022002910
:1010300080F8242018BF8847B0BD0000002804BFF6
:10104000012070472DE9F04140F2000C0446C4F243
:10105000020C00684FF6F8330CF58162CBF6FD7395
:10106000904238BF03F5806303EB00024CF6CD439A
:10107000CCF6CC43A2FB032304F1080E0CF58061EF
:101080006FF003059EE804413CBF0021C4F2020159
:1010900005EA9303C4E91013022184F825100168BE
:1010A00047F6F073994304F114071143E8CF41EA7E
:1010B000080141EA0E0119432943314339430160D4
:1010C0002046FFF761FAA06804F14803B0F5804FAD
:1010D00004BF0020606060680ECBC7B201380328EF
:1010E0000F60536009D82046FFF774FA04F15402E8
:1010F00007CA002303604A6003E00020C4E915002A
:10110000E06500200121E06384F8251084F82400C4
:10111000BDE8F08110B5044690F82400012820D0E5
:10112000012084F8240094F82500012816D102201B
:1011300084F825000020E063D4F800C0DCF800004B
:1011400020F00100CCF800002046FFF757FA206895
:10115000226B01683AB141F00E010AE0002084F8E8
:101160002400022010BD21F004010160016841F05B
:101170000A010160A06C0168C90303D5016841F44C
:1011800080710160606D18B1016841F48071016087
:101190002068016841F001010160002010BD0000DD
:1011A000B0B5044600F0F6F8054640F20400C2F27D
:1011B00000000068611C18BF044400BF00F0EAF89A
:1011C000401BA042FAD3B0BD7047000080B540F28A
:1011D0001441C4F201010A68024208BF80BD0860E0
:1011E000FFF7F2FF80BD00002DE9F04F83B00D68DE
:1011F000002D00F0C58000F138424FEAB22241F2E2
:1012000000470192C4F600070622002600244FF092
:10121000010AB84208BF0522009209E00D680434B3
:1012200035FA0AF20AF1010A06F1020600F0A88076
:10123000AAF1010C012202FA0CFB15EA0B09EDD010
:10124000D1F8048008F00305A5F1010EBEF1010FED
:1012500011D887680322CB68B24027EA0202B34064
:101260001A4382604268C8F3001322EA0B0203FAB1
:101270000CF31A434260032D1CD0C26803238F680D
:10128000B3409A4307FA06F31A43022DC26011D104
:101290006FF0030202EA5C02024404F01C070F2311
:1012A000D2F820E003FA07F50B692EEA0505BB40EA
:1012B0002B431362026803234F68B3409A4307F03D
:1012C0000303B3401A4317F4403F0260A6D041F233
:1012D0006003C4F202031A6840F2004E42F00102B9
:1012E0001A601A68C4F2010E02F001020292029A18
:1012F0002CF003024FF608487244CFF6FF7852F8FC
:10130000083004F00C070F25BD4023EA050C019BB3
:10131000009D052B38BF1D4605FA07F747EA0C0369
:1013200042F80830DEF808204B6842EA090740F22C
:101330000C4CDD0258BF22EA0907CEF80870C4F24F
:10134000010CDCF800209D0242EA090758BF22EA9E
:101350000907CCF80070DEF804209D0342EA090773
:1013600058BF22EA0907CEF80470DEF80020DB033C
:1013700042EA090758BF22EA0907CEF800704DE794
:1013800003B0BDE8F08F00001823002A08BF28230F
:10139000C150704740F26820C2F2000000687047F8
:1013A00040F2040040F26821C2F20000C2F20001E3
:1013B00000680A68104408607047000080B5032088
:1013C00000F068F8002000F009F800281CBF012098
:1013D00080BD00F02FF8002080BD0000B0B540F2C5
:1013E0000401C2F20001096801B3044640F20000A2
:1013F000C2F200004FF47A720068B2FBF1F1B0FB68
:10140000F1F000F0FFFD0F2C4FF001050CD858B99A
:101410004FF0FF3021460022002500F02BF840F26B
:101420000800C2F2000004602846B0BD012528462D
:10143000B0BD000080B582B041F25800C4F2020095
:10144000816841F001018160816801F00101019131
:101450000199016841F080510160006800F08050FE
:101460000090009800F092F802B080BD80B502F0C4
:10147000E5FC80BD70B514460D46064602F0EEFC54
:101480002946224601F06CFE0146304602F0EEFC91
:1014900070BD000080B502F0FBFC80BDB0F5007FA0
:1014A00035D0002866D147F20000C4F20000016880
:1014B000D0F8802001F4C06122F48072B1F5806F11
:1014C000C0F8802021D10168012262F34A21016025
:1014D00040F20001C2F200010968322359434DF67F
:1014E0008363C4F21B33A1FB031302EB934100BFE0
:1014F00043694A1E8A4203D213F480611146F7D130
:101500004069400544BF032070470020704747F200
:101510000000C4F200000168D0F8802001F4C0612E
:1015200042F48072B1F5806FC0F88020EDD101687F
:10153000012262F34A21016040F20001C2F200017F
:101540000968322359434DF68363C4F21B33A1FB70
:10155000031302EB934100BF43694A1E8A4203D240
:1015600013F480611146F7D14069400544BF032060
:101570007047CAE747F20000C4F200000168022287
:1015800062F34A21016000207047000047F2080022
:10159000C4F20000016841F480410160704700001E
:1015A0002DE9F04381B08146807841F28807000739
:1015B000C4F2020701D4002565E057F8300C10F0A2
:1015C00080580BD157F8300C40F0805047F8300C61
:1015D00057F8300C00F080500090009847F200045B
:1015E000C4F20004206840F480702060FFF7D2FE4F
:1015F000054600BF206810F4807607D1FFF7CAFEC9
:10160000401B0328F6D3032516B933E000258EB31B
:10161000B86810F4407012D0D9F8501088420BD03E
:10162000B868B96820F4407041F48031B960B96895
:1016300021F48031B960B860C00703D111E0002007
:10164000C0070ED0FFF7A6FE064641F2893400BF60
:10165000B868800705D4FFF79DFE801BA042F7D332
:1016600003253DB9B868D9F8501020F440700843FC
:101670000025B860B8F1000F05D157F8300C20F004
:10168000805047F8300CD9F80000C10716D1810707
:101690001DD4410724D401072BD4C10632D48106BE
:1016A00039D4410640D4010647D4C1054ED4810344
:1016B00055D481055CD4410563D472E03968D9F80A
:1016C000042021F00301114339608107E1D5396815
:1016D000D9F8082021F00C01114339604107DAD50F
:1016E0003968D9F80C2021F0300111433960010725
:1016F000D3D53968D9F8102021F0C00111433960E1
:10170000C106CCD53968D9F8142021F440711143B1
:1017100039608106C5D53968D9F8182021F44061AF
:10172000114339604106BED53968D9F81C2021F42F
:101730004051114339600106B7D53968D9F82020E6
:1017400021F4404111433960C105B0D53968D9F859
:10175000242021F44031114339608103A9D57969EE
:10176000D9F8282021F00301114379618105A2D520
:101770003968D9F82C2021F4402111433960410502
:101780000FD53968D9F8302021F440111143B2F552
:10179000801F396005D157F87C1C41F4801147F84F
:1017A0007C1C01050FD53968D9F8342021F440019B
:1017B0001143B2F5800F396005D157F87C1C41F414
:1017C000801147F87C1CC1040FD53968D9F838203E
:1017D00021F040711143B2F1807F396005D157F893
:1017E0007C1C41F4801147F87C1C81040FD53968BA
:1017F000D9F83C2021F040611143B2F1006F39600B
:1018000005D157F87C1C41F4801147F87C1C410439
:101810000FD53968D9F8402021F040611143B2F169
:10182000006F396005D157F87C1C41F4801147F8EE
:101830007C1C01040FD53968D9F8442021F04051AF
:101840001143B2F1805F396005D157F87C1C41F437
:10185000803147F87C1CC1030FD53968D9F848207E
:1018600021F040411143B2F1804F396005D157F862
:101870007C1C41F4803147F87C1C40030FD578690B
:10188000D9F84C1020F440100843B1F5001F7861DE
:1018900005D157F87C0C40F4801047F87C0C2846A2
:1018A00001B0BDE8F08300002DE9F047002800F00A
:1018B000CA8042F2000AC4F2020A0446DAF80000C2
:1018C0000D4600F00F0088420DD2DAF8000020F03B
:1018D0000F002843CAF80000DAF8000000F00F00FB
:1018E000A84240F0B080207841F20808C007C4F256
:1018F00002080CD14FF00009206881072BD4B9F100
:10190000800F41D1D8F8000020F0F0003AE0606884
:10191000022800F08C80032840F0918058F8080CD1
:10192000800140F1908001F033FC4BF20041C0F2A5
:10193000C44188420CD9D8F8000010F0F00F00F034
:101940008E802078800703D5A068002800F087806B
:101950004FF000098CE0410705D5D8F8001041F49C
:10196000E061C8F80010000706D5D8F8000007218C
:1019700061F30D20C8F80000D8F80000A16820F03D
:10198000F0000843C8F80000DAF8000000F00F008B
:10199000A84219D9DAF8000020F00F002843CAF84D
:1019A0000000FFF7F7FC064641F28837DAF800003E
:1019B00000F00F00A84207D0FFF7ECFC801BB842F4
:1019C000F4D90320BDE8F0872068410707D5D8F88F
:1019D0000010E26821F4E0611143C8F8001000072C
:1019E00008D5D8F80000216920F4605040EAC10011
:1019F000C8F8000000F08AF8D8F8001043F65E72CC
:101A0000C1F30311C0F60002515C40F2000201F084
:101A10001F0120FA01F140F20800C2F20000006844
:101A2000C2F200021160FFF7D9FCBDE8F08758F858
:101A3000080C80035CBF0120BDE8F08706E058F881
:101A4000080C400502D40120BDE8F08700F05EF8E4
:101A50004BF20041C0F2C44188427FF679AFD8F81A
:101A60000000082161F307104FF08009C8F800005A
:101A7000D8F80000616820F003000843C8F80000AF
:101A8000FFF788FC064641F2883700BFD8F800000F
:101A9000616800F00C00B0EB810F3FF42DAFFFF751
:101AA00079FC801BB842F1D90320BDE8F087000023
:101AB00040F20000C2F200000068704780B5FFF7F6
:101AC000F7FF41F20801C4F20201096843F66E72A1
:101AD000C1F30221C0F60002515C01F01F01C840B1
:101AE00080BD000080B5FFF7E3FF41F20801C4F2BA
:101AF0000201096843F66E72C1F3C221C0F600020A
:101B0000515C01F01F01C84080BD000041F20C0192
:101B1000C4F2020151F8040C42F20042C0F2F40295
:101B200000F00C000428104608BF704751F8040C60
:101B300000F00C00082843F20060C0F26E1021D0C3
:101B400051F8043C03F00C030C2B1CBF0020704721
:101B5000D1F800C00B680CF0030CC3F3031301337E
:101B6000BCF1030F08BF02460868B2FBF3F2096834
:101B7000C0F306205043C1F34161022202EB410150
:101B8000B0FBF1F0704700002DE9F04182B0002871
:101B900000F001810446007841F20006C007C4F25B
:101BA000020654D12078800772D42078000700F113
:101BB00095802078400700F1B3802078800600F1FE
:101BC0000081E069002840D0B16801F00C010C29C7
:101BD00040F05881012800F0DE80F068216A00F0B2
:101BE00003028A4240F0D780626A6FF00F0300F070
:101BF000F00103EB0212914240F0CD80A16A00F4A3
:101C0000FE42B2EB012F40F0C680E16A00F078425C
:101C1000B2EBC16F40F0BF80226B0023CFF6E073C0
:101C200003EB025200F4C0016FF31402914240F042
:101C3000B280616B4FF07E4202EB016100F0C06048
:101C400001F07E41884240F0A6800020D7E1B068D4
:101C500000F00C01F068082959D0032281F00C0132
:101C600022EA00000844B0FA80F040094FD16568CC
:101C7000B5F5A02F00F0D180B5F5803F00F0D18000
:101C8000306820F480303060306820F48020CBE071
:101C9000B068F16800F00C00042866D001F0030180
:101CA00080F00C0081F002010844B0FA80F0400995
:101CB0005BD1E1683068002900F0D28040F4807088
:101CC0003060FFF767FB05463068400500F1EF80A4
:101CD000FFF760FB401B0228F6D920E16169D6F8C6
:101CE0009400002900F0878040F00100C6F89400BD
:101CF000FFF750FB054600BFD6F8940080073FF57C
:101D000058AFFFF747FB401B0228F5D907E13068C1
:101D100080037FF547AF606800287FF443AF3AE067
:101D2000B06D10F0805808D1B06D40F08050B065B3
:101D3000B06D00F080500190019847F20007C4F2A6
:101D400000073868C0052AD4386840F480703860CD
:101D5000FFF720FB054600BF3868C0051FD4FFF71A
:101D600019FB401B0228F7D9D9E03068400501D59E
:101D7000E06880B17068216920F0FE4040EA0160AF
:101D8000706040F20800C2F200000068FFF726FB16
:101D900000283FF40AAF012002B0BDE8F081A56839
:101DA000052D00F0A080012D00F0A380D6F8900052
:101DB00020F00100C6F89000D6F8900020F0040052
:101DC0009BE0A169D6F89800002978D040F0010086
:101DD000C6F89800FFF7DEFA054600BFD6F898006F
:101DE00080073FF5EEAEFFF7D5FA401B02284FF013
:101DF0000300F3D903E120F00100C6F89400FFF7D7
:101E0000C9FA0546D6F8940080077FF5D2AEFFF7F1
:101E1000C1FA401B0228F5D981E0306840F48020E7
:101E20003060306840F480303060FFF7B3FA002D46
:101E3000054611D0306880033FF5B4AEFFF7AAFA2B
:101E4000401B6428F6D96AE0FFF7A4FA401B642817
:101E50004FF0030000F2D38030688003F4D4A1E691
:101E600020F480703060FFF795FA05463068400531
:101E70007FF59BAEFFF78EFA401B02284FF0030060
:101E8000F4D9BCE03168022821F0807131605FD163
:101E9000FFF780FA054600BF3068800172D5FFF772
:101EA00079FA401B02284FF00300F5D9A7E07068CB
:101EB000216920F0FE4040EA0160706075E620F084
:101EC0000100C6F89800FFF765FA0546D6F89800B5
:101ED00080077FF576AEFFF75DFA401B02284FF0D2
:101EE0000300F3D98BE0D6F8900040F00400C6F868
:101EF0009000D6F8900040F00100C6F89000FFF77F
:101F000049FA002D054641F2883714D0D6F89000E2
:101F1000800714D4FFF73EFA401BB842F6D90320DD
:101F200002B0BDE8F08100BFFFF734FA401BB842B1
:101F30004FF0030063D8D6F890008007F4D4B8F1CE
:101F4000000F7FF43AAEB06D20F08050B06534E6FB
:101F5000F0684FF6FF7120F00300F060F068CFF6F4
:101F6000EE610840F060FFF715FA04463068800122
:101F70007FF56BAEFFF70EFA001B02284FF003004F
:101F8000F4D93CE0F06848F20C01C0F29F1104F172
:101F9000200700EA010C8ECF6FF00F00D4E90C543B
:101FA00000EB02100022CFF6E07241EA0C0102EBD6
:101FB000055208436FF314024FF07E4540EA0320B8
:101FC00005EB0465104305F07E4540EAC7602843F1
:101FD000F060306840F080703060F06840F08070F1
:101FE000F060FFF7D7F90446306880013FF52DAE69
:101FF000FFF7D0F9001B02284FF00300F4D902B01C
:10200000BDE8F08180B501F0E9F880BDF0B590F849
:102010003C20012A04BF0220F0BD012280F83C20B0
:10202000D1E90232D1E900CE22F47C5223F470537C
:102030001A4348F2FF73CFF6F07303EA0E0342EA45
:10204000030E0A692CF477234EEA030C22F476225D
:102050004B6942EA0C021A430B6B22F4742C23F4F2
:1020600070238A6943EA0C0343EA0243026842F69A
:10207000004EC4F2010E45F2000C7245C4F2010C90
:1020800018BF624520D1CC6923F0805323437245A9
:1020900018BF62451FD101F12006002770CECFF690
:1020A000F04723F07C7307EA0656334324F00074AC
:1020B0002343724543EA050318BF624512D1C96A3A
:1020C00023F000530B4313E043F20044C4F2010435
:1020D000A242D8D0DBE743F20044C4F20104A2429A
:1020E00006D1D8E743F20047C4F20107BA42E6D06E
:1020F0000021536480F83C100846F0BD70B590F89C
:102100003C20012A4FF0020264D0012380F83C30C9
:1021100080F83D20026842F600435468D2F808C0B7
:10212000C4F2010345F2000E9A42C4F2010E18BF38
:1021300072452AD14D6824F470042C434FF68F75F4
:10214000CFF6FF550E682C4042F6FF35C4F201056C
:102150003443AA4254600DDC40F2FF73C4F2000322
:102160009A4219DCB2F1804F29D040F20043C4F208
:10217000000322E043F6FF74C4F20104A24216DC1D
:102180009A421CD043F2004315E043F20045C4F2EA
:102190000105AA42CED0D1E740F60003C4F2000305
:1021A0009A420CD040F60043C4F2000305E07245A9
:1021B00005D044F20003C4F201039A4204D18968B5
:1021C0002CF08003194391600121002280F83D101A
:1021D00080F83C20104670BD002804BF01207047E5
:1021E00010B5044690F83D0028B9002084F83C0062
:1021F000204600F023F8022084F83D002068211DCD
:1022000001F048F8012084F8480084F83E0084F882
:102210003F0084F8400084F8410084F8420084F8CC
:10222000430084F8440084F8450084F8460084F8AC
:10223000470084F83D00002010BD000082B0006817
:10224000B0F1804F14D042F60041C4F2010188423F
:102250001BD141F25800C4F20200816841F40061D0
:102260008160806800F400600190019802B07047BE
:1022700041F25800C4F20200016841F0010101601E
:10228000006800F001000090009802B07047000064
:1022900010B5044690F83C0001284FF0020008BF3A
:1022A00010BD0B46012184F83C1084F83D002068E5
:1022B00088228168CFF6CE72114081601968B1F52D
:1022C000005F0BDA3F291FDD5F292EDD60294BD02F
:1022D000702950D0B1F5805F6BD043E02F22C0F25F
:1022E0001002914217DD4F22C0F21002914227DD09
:1022F0005022C0F21002914259D06022C0F2100266
:10230000914254D0702229E01F2920DC00294ED0B0
:1023100010294CD026E0B1F1101F1DDAB1F5005F95
:1023200034D0B1F5801F42D01CE0402939D050296B
:1023300018D15968DA6801F0A1FA2068502136E016
:102340003022C0F21002914231D0402206E0202912
:102350002DD030292BD005E029D02022C0F2100248
:10236000914224D0012025E05968DA6801F098FAFA
:10237000206860211BE0D3E90121DB6801F038F817
:102380002068816841F07701816012E0D3E9012182
:10239000DB6801F02DF82068816841F4804181609C
:1023A00007E05968DA6801F069FA2068402101F015
:1023B0002BF80020012184F83D10002184F83C1006
:1023C00010BD000080B586B000680021B0F1804FDC
:1023D0000591CDE90311029101911AD042F6004115
:1023E000C4F2010188422ED141F24C00C4F2020035
:1023F000016841F0040101600068022100F004005E
:10240000009000980120019040F60000C4F6000002
:1024100010E041F24C00C4F20200016841F00101F9
:1024200001600068012100F00100009000984FF069
:1024300090400191022202920022059101A9CDE96A
:102440000322FEF7D1FE06B080BD000010B50446A1
:1024500090F83C00012804BF022010BD4FEAB202F0
:102460000120052A84F83C001CD8DFE802F00307AD
:102470000B0F1317206800F0D3FF12E0206801F063
:1024800011F80EE0206801F05DF80AE0206801F024
:10249000A9F806E0206801F0F5F802E0206801F0F4
:1024A00021F90020002184F83C1010BD002804BF51
:1024B0000120704710B5044690F83D0028B900206F
:1024C00084F83C00204600F023F8022084F83D0008
:1024D0002068211D00F0DEFE012084F8480084F809
:1024E0003E0084F83F0084F8400084F8410084F8FE
:1024F000420084F8430084F8440084F8450084F8DE
:10250000460084F8470084F83D00002010BD00001C
:1025100070470000B0B5044659B1081F4FEAB0003B
:10252000032809D8DFE800F0020B0E1104F13F0088
:102530000DE004F13E000AE004F1430007E004F17D
:10254000400004E004F1410001E004F142000078A1
:1025500001281CBF0120B0BD61B1081F4FEAB000C7
:1025600003280BD8DFE800F0020E1216022084F8D0
:102570003F0012E0022084F83E000EE0022084F8C2
:1025800043000AE0022084F8400006E0022084F8BC
:10259000410002E0022084F8420020680122012567
:1025A00000F014FF2168A1F18040A0F596304FEAB9
:1025B000B02242F6FF30072AC4F2010051D805FAD2
:1025C00002F212F0E50F4CD04A6C814242F4004214
:1025D0004A640DDC40F2FF70C4F20000814216DC58
:1025E000B1F1804F2AD040F20040C4F2000023E055
:1025F00043F6FF70C4F20100814213DC42F6004052
:10260000C4F20100814219D043F2004012E040F6CA
:102610000000C4F20000814210D040F60040C4F235
:10262000000009E045F20000C4F20100814205D03B
:1026300044F20000C4F20100814226D188680722DA
:10264000C0F201020240062A4FF0000022D0B2F58B
:10265000803F08BFB0BD086840F00100086000205E
:10266000B0BD8142B6DD43F6FF72C4F20102914271
:10267000C4DD44F20002C4F201029142DED045F210
:102680000002C4F2010291429ED0086840F00100AD
:1026900008600020B0BD0000B0B5044690F83C00D2
:1026A000012804BF0220B0BD0D464FEAB20101204F
:1026B000052984F83C0048D8DFE801F0030B131B20
:1026C00023332068294600F0ABFE206850F8181F1D
:1026D0001EE02068294600F0E5FE206850F8181F2B
:1026E00026E02068294600F02DFF206850F81C1FC6
:1026F0000EE02068294600F075FF206850F81C1F86
:1027000016E02068294600F0BDFF206850F8501FF1
:1027100041F008010160016821F0040101602969AC
:102720000FE02068294600F0DDFF206850F8501FB8
:1027300041F400610160016821F480610160296950
:1027400009020268114301600020002184F83C1056
:10275000B0BD0000002804BF0120704710B504463A
:1027600090F83D0028B9002084F83C00204600F095
:1027700023F8022084F83D002068211D00F08AFD26
:10278000012084F8480084F83E0084F83F0084F873
:10279000400084F8410084F8420084F8430084F843
:1027A000440084F8450084F8460084F8470084F823
:1027B0003D00002010BD000070470000B0B5044689
:1027C00059B1081F4FEAB000032809D8DFE800F02C
:1027D000020B0E1104F13F000DE004F13E000AE08F
:1027E00004F1430007E004F1400004E004F141007B
:1027F00001E004F14200007801281CBF0120B0BDB7
:1028000061B1081F4FEAB00003280BD8DFE800F0E1
:10281000020E1216022084F83F0012E0022084F813
:102820003E000EE0022084F843000AE0022084F813
:10283000400006E0022084F8410002E0022084F813
:10284000420020680122012500F0C0FD2168A1F1AD
:102850008040A0F596304FEAB02242F6FF30072ABA
:10286000C4F2010051D805FA02F212F0E50F4CD083
:102870004A6C814242F400424A640DDC40F2FF702F
:10288000C4F20000814216DCB1F1804F2AD040F240
:102890000040C4F2000023E043F6FF70C4F20100E0
:1028A000814213DC42F60040C4F20100814219D09B
:1028B00043F2004012E040F60000C4F20000814202
:1028C00010D040F60040C4F2000009E045F20000DC
:1028D000C4F20100814205D044F20000C4F20100BC
:1028E000814226D188680722C0F201020240062AEE
:1028F0004FF0000022D0B2F5803F08BFB0BD08689D
:1029000040F0010008600020B0BD8142B6DD43F612
:10291000FF72C4F201029142C4DD44F20002C4F22B
:1029200001029142DED045F20002C4F2010291425E
:102930009ED0086840F0010008600020B0BD000093
:10294000B0B5044690F83C0001284FF0020008BFE3
:10295000B0BD012584F83C5084F83D00204600F0CD
:10296000F3FE00284FF0010009D12068C16821F072
:102970004001C160C16821F48041C1600020002194
:1029800084F83D5084F83C10B0BD000090F88010F1
:10299000012904BF022070472421C0F88410026876
:1029A0001168136823F00103136021F00053002124
:1029B000416613602022C0F8842080F88010084609
:1029C00070470000B0B5044690F88000012804BFAD
:1029D0000220B0BD012084F880002420C4F88400C7
:1029E00020680568026822F001020260826822F015
:1029F000606211438160204600F064FF206805603A
:102A00002020C4F88400002084F88000B0BD0000BD
:102A1000B0B5044690F88000012804BF0220B0BD84
:102A2000012084F880002420C4F884002068056810
:102A3000026822F001020260826822F060421143C3
:102A40008160204600F03EFF206805602020C4F829
:102A50008400002084F88000B0BD000010B5B0B143
:102A60000446D0F8840028B9002084F8800020466D
:102A700000F026F82420C4F884002068016821F0C2
:102A800001010160204600F0F3FF012801D101207F
:102A900010BDA06A10B1204600F03EFF20684168DA
:102AA00021F490414160816821F02A018160016830
:102AB00041F001010160204600F0A2FF10BD0000BE
:102AC000B0B59CB00446002502A854211B95CDE961
:102AD0001955CDE91755FDF767FC206848F200014C
:102AE000C4F20001884201D01CB0B0BD2020029089
:102AF00002A80895FEF754FD002818BFFDF7AAFDAF
:102B000041F24C00C4F20200016941F0010101618F
:102B1000016901F0010101910199016841F0010190
:102B200001600068022100F00100019001980C2072
:102B3000189100211790CDE919111B9017A94FF09A
:102B40009040FEF751FB1CB0B0BD0000FEE7000056
:102B500081684FF6C072C5F6FF7211408160704700
:102B600081684FF6C072C7F6FF7211400131816073
:102B70007047000081684FF6C072C6F6FF721140C0
:102B800001F1805181607047806800F0E07070470B
:102B9000806800F01F00704700EB8100006E00F0BD
:102BA000F84070478068C0F3C00070478068C0F389
:102BB00040707047806800F001007047806800F046
:102BC000010070478068C0F3007070478068C0F3F0
:102BD000800070478068C0F380007047C06800F4D0
:102BE0004060B0FA80F0400970470000C1F3012353
:102BF00000EB8300D0F830C001F01F011F238B4091
:102C0000C2F384622CEA030302FA01F1194301635F
:102C10007047000081684FF6C072C7F6FF7211401E
:102C20000431816070470000C1F3406300EB830012
:102C3000D0F814C0C1F3045107238B402CEA0303DE
:102C400002FA01F119434161704700000023C4F208
:102C50007F036FF3DF419A42D0F8B02014BF22EA1D
:102C600001011143C0F8B01070470000826822F4DF
:102C70007C12114381607047826822F0E072114338
:102C80008160704700EB8100D0F860C04FF2000116
:102C9000C0F2FF3102F0F84201EA0C011A4311437D
:102CA00041F000410166704700EB8100016E21F0A8
:102CB000007111430166704700EB8100016E21F045
:102CC000807111430166704700EB8100016E21F0B5
:102CD0000041016670470000426922F00042114342
:102CE0004161704710B58CB040F27400C2F2000030
:102CF0004FF0A04100244FF4403280E816004FF41A
:102D000080710423818301210B94CDE90944CDE92D
:102D10000744CDE90544CDE90344CDE90144C0E9C8
:102D20000344C0E90543016280F82440C0E90B4434
:102D300080F83810C46380F84040FDF717FF002882
:102D400018BFFDF787FC40F27400C2F2000009A929
:102D50000994FDF785FC002818BFFDF77BFC0420D3
:102D6000C0F6600001900620029004207F210390AD
:102D7000CDE904100020069040F27400C2F2000079
:102D800001A9FDF71FFD002818BFFDF763FC0CB07B
:102D900010BD000080B582B041F24800C4F20200CC
:102DA0000168002241F004010160016801F00401A2
:102DB00001910199016841F0010101600068002161
:102DC00000F00100009000980B20FEF753FB0B2051
:102DD000FEF74CFB02B080BD70B586B0002541F215
:102DE0004C000595CDE90355CDE90155C4F202002B
:102DF0000168002241F0040101600168202601F011
:102E0000040100910099016841F02001016001680E
:102E100001F0200100910099016841F00101016079
:102E2000016801F0010100910099016841F002017F
:102E300001600068202100F00200009000984FF02F
:102E40009040FEF7A1FA4FF4005001904FF4881023
:102E5000CDE9020540F6000001ACC4F600002146B1
:102E6000FEF7C2F90120CDE902054FF0904021465E
:102E700001960495FEF7B8F9282000210022FEF7FC
:102E8000F9FA2820FEF7F2FA06B070BD80B540F2DC
:102E9000401048F20001C2F20000C4F20001002319
:102EA0004FF00C0C4FF4E13280E80E00C0E9033320
:102EB000C0E905C3C0E908338362FFF7CFFD0028EE
:102EC00018BFFDF7C7FB40F24010C2F2000000211E
:102ED000FFF79EFD002818BFFDF7BCFB40F2401035
:102EE000C2F200000021FFF76DFD002818BFFDF7BA
:102EF000B1FB40F24010C2F20000FFF747FD00288E
:102F000018BFFDF7A7FB80BD10B59CB0002401A839
:102F10003421CDE91A44CDE91844CDE91644CDE970
:102F20001444CDE91244CDE91044CDE90E44FDF737
:102F30003BFA40F2D01042F60041C2F20000C4F267
:102F400001014FF47A73A92280E81600C0E9033426
:102F5000C0E90544FFF740F9002818BFFDF77AFBE8
:102F60004FF48050189040F2D010C2F2000018A91F
:102F7000FFF78EF9002818BFFDF76CFB40F2D01068
:102F8000C2F20000FFF7E6FB002818BFFDF762FB66
:102F900040F2D010C2F20000FFF788FA002818BFF4
:102FA000FDF758FB502015908020179040F2D0106C
:102FB0000024C2F2000015A91694FFF79FF800281C
:102FC00018BFFDF747FB60200E904FF4FA70CDE973
:102FD0000F0440F2D010C2F200000EA90022CDE989
:102FE0001144CDE91344FFF757FB002818BFFDF744
:102FF00031FB10200E9037200F9040F2D010C2F21B
:1030000000000EA90422FFF721FA002818BFFDF7DF
:1030100021FB00204FF40051CDE906104FF0007164
:103020000590CDE90300CDE90100CDE90800CDE927
:103030000A10CDE90C0040F2D010C2F2000001A944
:10304000FEF7E4FF002818BFFDF704FB40F2D010A4
:10305000C2F20000FFF7B6F91CB010BD80B594B005
:1030600040F21C200021C2F200004FF08042A92350
:103070004FF47A7C1391CDE91111CDE90F11CDE90F
:103080000D11CDE90B11CDE90911CDE90711CDE9FC
:103090000511CDE90311CDE90111C0E90023C0E913
:1030A000021C01618161FFF797F8002818BFFDF746
:1030B000D1FA4FF48050109040F21C20C2F2000070
:1030C00010A9FFF7E5F8002818BFFDF7C3FA40F292
:1030D0001C20C2F20000FFF73DFB002818BFFDF7DF
:1030E000B9FA06200B9000200C9040F21C20C2F28E
:1030F00000000BA9FFF724FC002818BFFDF7AAFA6F
:103100005020089080200A9040F21C20C2F200005B
:1031100008A9FEF7F3FF002818BFFDF79BFA60200F
:1031200001904FF4FA70029000200390059040F255
:103130001C20C2F2000001A90022FFF7ADFA00280E
:1031400018BFFDF787FA40F21C20C2F20000FFF71B
:1031500039F914B080BD0000FEE70000FEE7000072
:1031600000F0070080F00703042B28BF04234FF072
:10317000FF3C03380CFA03F338BF00209943814029
:103180000CFA00F022EA0000084370477047000084
:1031900041F20C00C4F202000168026842F20043EE
:1031A00001F00301C2F30312C0F2F4030132032958
:1031B00004BF43F20063C0F26E130168B3FBF2F286
:1031C0000068C1F306215143C0F34160022202EBC3
:1031D0004000B1FBF0F0704770470000B0B5013817
:1031E0000024B4EB106F1CBF0120B0BD4EF21005DF
:1031F000CEF2000568604FF0FF300F2100F036FE80
:103200000720AC6028602046B0BD000080B5FEF706
:10321000C7F880BDB0B594B006AC20463821FDF7A4
:10322000C3F8002500200595CDE90355CDE90155EA
:10323000FEF734F94FF48071099140210A9104217D
:1032400002200F9155210690CDE90D00CDE9101017
:10325000CDE912002046FEF797FC70B90F200190CF
:103260000320CDE9020501A80421CDE90455FEF7AC
:103270001BFB002804BF14B0B0BDFDF7EBF9000044
:103280004EF68850CEF20000016841F470010160F2
:103290007047000080B540F6FF330268C4F20003B7
:1032A00043F2FF3C9842C4F2010C0ADD60452EDC7B
:1032B00040F60043C4F20003984234D042F6004383
:1032C0002DE0B0F1804F2ED040F20043C4F2000355
:1032D000984228D040F60003C4F20003984222D05E
:1032E000604526DC40F2FF73C4F20003984235DDEE
:1032F00040F60003C4F20003984243D040F6004376
:10330000C4F2000398423DD042F6004336E045F255
:103310000003C4F20103984205D043F20043C4F213
:1033200001039842DCD14B6822F070021A436045D9
:10333000D8DD44F2FF33C4F20103984216DD44F2B3
:103340000043C4F2010398421CD045F20003C4F2CA
:103350000103984216D044F600030FE0B0F1804F0D
:1033600010D040F20043C4F2000309E043F20043EE
:10337000C4F20103984205D044F20003C4F20103F1
:10338000984203D1CB6822F440721A434B6922F071
:10339000800E8A6843EA0E03D1F800C00360C2625F
:1033A000A0F18042A2F596324FEAB222092AC0F873
:1033B00028C008D8012303FA02F240F2E5231A429A
:1033C0001CBF096901630121416180BD80B501F025
:1033D0001F014FF0010CD0F820E00CFA01F32EEAA7
:1033E00003030362036A02FA01F11943016280BD1B
:1033F000D0F808C011432CF47F4C41EA032141EA84
:103400000C0181607047000082684FF68873CFF628
:10341000CF731A40114341F00701816070470000EB
:1034200070B5026AA0F1804422F001020262036AD0
:103430004268D0F818C08D68A4F59634D1F800E041
:1034400023F002034FEAB424092C43EA05030BD806
:103450000125A54040F2E52635421FBFCD6823F087
:103460000C0325F004052B43092C0CD8012505FA83
:1034700004F440F2E5252C421FBF22F44072D1E94A
:10348000054522432A434FF68C74CFF6FE740CEAAE
:10349000040646EA0E06426086614968416303629B
:1034A00070BD0000B0B5026A42F6004422F010027E
:1034B0000262036AC4F201044268D0F818C0A04254
:1034C0008C68D1F800E023F0200343EA04130BD00A
:1034D00045F20004C4F20104A04205D043F20044C6
:1034E000C4F20104A04207D1CC686FF0400523F07C
:1034F000C00305EA04142343A0F18044A4F59634E4
:103500004FEAB424092C0ED8012505FA04F440F240
:10351000E5252C421FBF22F44062D1E9054542EA6D
:10352000840242EA850248F6FF44CFF6FF640CEAC3
:10353000040545EA0E25426085614968816303629E
:10354000B0BD0000B0B5026A42F6004422F48072B9
:103550000262036AC4F201044268D0F81CC0A042AF
:103560008C68D1F800E023F4007343EA04230BD005
:1035700045F20004C4F20104A04205D043F2004425
:10358000C4F20104A04207D1CC6840F2FF452402F6
:1035900023F44063AC432343A0F18044A4F5963464
:1035A0004FEAB424092C0ED8012505FA04F440F2A0
:1035B000E5252C421FBF22F44052D1E9054542EADD
:1035C000041242EA05124FF68C74CFF6FE740CEA30
:1035D000040545EA0E054260C5614968C16303629E
:1035E000B0BD0000B0B5026A42F6004422F4805239
:1035F0000262036AC4F201044268D0F81CC0A0420F
:103600008C68D1F800E023F4005343EA04330BD074
:1036100045F20004C4F20104A04205D043F2004484
:10362000C4F20104A04207D1CC6844F6FF7524031C
:1036300023F44043AC432343A0F18044A4F59634E3
:103640004FEAB424092C0ED8012505FA04F440F2FF
:10365000E5252C421FBF22F44042D1E9054542EA4C
:10366000841242EA851248F6FF44CFF6FF640CEA62
:10367000040545EA0E254260C5614968016403629C
:10368000B0BD000070B5026AA0F1804522F480321E
:103690000262A5F59635D0F820C04268036D0C682B
:1036A000D1F808E04FEAB525092D0BD8012606FA16
:1036B00005F540F2E52635421EBF4D6922F4803201
:1036C00042EA05224FF68F75CFF6FE752B40234355
:1036D000426003652CF40036496846EA0E42816474
:1036E000026270BD70B5026AA0F1804522F48012BA
:1036F0000262A5F59635D0F820C04268036D0C68CB
:10370000D1F808E04FEAB525092D0BD8012606FAB5
:1037100005F540F2E52635421EBF4D6922F48022B0
:1037200042EA852248F6FF75CFF6FF652B4043EA53
:103730000423426003652CF40016496846EA0E52E1
:10374000C164026270BD000080B5D0F800E04FF6A1
:103750008872DEF80800CFF6CE721040D1E900C2C0
:103760004FF6F873CFF6FE731340184340EA0C008F
:10377000CEF80800B2F5801F4FF0000007DA3F2AAC
:1037800016DC1F2A2EDC0AB1102A4ED180BD3F2143
:10379000C0F210018A4219DC1F21C0F210018A42D6
:1037A00025DCB2F5801FF1D0B2F1101FEED03CE065
:1037B0005F2A23DC402A3AD0502A36D18B680A6926
:1037C0007046194600F05AF8002080BD5F21C0F213
:1037D00010018A421FDC4021C0F210018A42D5D07C
:1037E00050211EE0202AD1D0302ACFD01DE0202148
:1037F000C0F210018A42C9D0302112E0602A34D0D0
:10380000702A12D1D1E9022C0B6970466146FFF78C
:10381000EFFD002080BD6021C0F210018A42B5D0CA
:103820007021C0F210018A42B0D0012080BDBCF1ED
:10383000050F4FF00100A9D0BCF1011F08BF80BDEA
:10384000DEF82000DEF8202022F00102CEF8202051
:10385000DEF81820096922F0F00242EA0111CEF8E0
:103860001810CEF82000002080BD8B680A697046D1
:10387000194600F015F8002080BD0000D0F820C0E7
:10388000036A23F001030362836923F0F00343EA30
:1038900002122CF00A031943826101627047000092
:1038A000036A23F0100303628369D0F820C023F475
:1038B000704343EA02322CF0A00343EA0111826113
:1038C0000162704780B5416E01B3016843F68E7C9A
:1038D0008A688968C0F6000C490F43F6967E1CF88A
:1038E0000130C0F6000E1EF80110C2F34262DB0088
:1038F000B3FBF1F31CF802101EF80220C900B1FB63
:10390000F2F1A0F86A30A0F8681080BD0121A0F89B
:103910006A10A0F8681080BD80B5816ACA070CD112
:103920008A0715D44A071ED40A0727D4CA0630D4FA
:103930008A0639D44A0657D541E00268D0F82CC02F
:10394000536823F4003343EA0C0353608A07E9D534
:103950000268D0F830C0536823F4803343EA0C0384
:1039600053604A07E0D50268D0F834C0536823F4A6
:10397000802343EA0C0353600A07D7D50268D0F8C6
:1039800038C0536823F4004343EA0C035360CA066B
:10399000CED50268D0F83CC0936823F4805343EA44
:1039A0000C0393608A06C5D50268D0F840C09368BE
:1039B00023F4005343EA0C0393604A0614D50268CB
:1039C000D0F844C05368BCF5801F23F4801343EA49
:1039D0000C03536008D1D2F804C0D0F848E02CF4AE
:1039E000C00343EA0E035360090658BF80BD016857
:1039F000C06C4A6822F400221043486080BD000079
:103A0000B0B582B004460020C4F88C00FDF7C2FCBB
:103A100021680546096809070BD56FF07E4C2046E2
:103A20004FF4001100222B46CDF800C000F08EF9B3
:103A300078B92068006840070ED56FF07E4C2046AC
:103A40004FF4800100222B46CDF800C000F07EF933
:103A500010B1032002B0B0BD2020C4F88400C4F827
:103A600088000020E06684F8800002B0B0BD00004D
:103A7000F0B581B004462269D4E902130068676991
:103A80000A43E1693A43076846F6F316CCF6FF7637
:103A90000A4337403A43026042684FF2FF4622F43D
:103AA00040521A43426048F20002A369C4F2000285
:103AB00090421CBF276A3B438768C1F2FF1637401C
:103AC0003B438360C36A676A23F00F033B43C362CF
:103AD00044F6FF73C4F2000398424FF0100318DC61
:103AE00044F20047C4F20007B84227D044F600076A
:103AF000C4F20007B84228D044F60047C4F20007D9
:103B0000B8423BD141F28803C4F202031B689B090F
:103B10002FE045F20007C4F20007B8421CD09042E3
:103B200021D043F60007C4F20107B84226D141F282
:103B30008803C4F202031B6880A71BE041F28803DC
:103B4000C4F202031B689B0813E041F28803C4F22D
:103B500002031B681B090CE041F28803C4F2020354
:103B60001B681B0A05E041F28803C4F202031B68CC
:103B70009B0A6EA703F0030357F82330904242F2EA
:103B80000040C0F2F40011D0B1F5004F1DD1082B58
:103B900000F26F800025DFE803F00568766C6F6C3B
:103BA0006C6C73000025FDF789FF6CE0082B1BD8B7
:103BB0000027DFE803F0051920191D191919510014
:103BC0000027FDF77BFFB8B94BE0082B00F281809E
:103BD0000025DFE803F0057A887E817E7E7E850001
:103BE0000025FDF76BFF7EE00020012720B938E0BB
:103BF0000027FDF78BFFA0B3616A43F67672C0F62B
:103C0000000232F811206668B0FBF2F106EB4603C1
:103C100099424FF00105C0F08080330399427CD86F
:103C200000210023FCF748FB090241EA1061000271
:103C300010EB560041F1000132460023FCF73CFB3B
:103C40004FF6FF42A0F54071C0F20F0291420AD830
:103C500021683D46C86060E04FF40040002700281E
:103C6000CAD13D4659E0012557E00025FDF73AFF4E
:103C700009E00020012506E00025FDF747FF02E0EE
:103C80004FF400400025002847D0616A43F6767261
:103C9000C0F6000232F811106268B0FBF1F0510872
:103CA00001EB4000B0FBF2F04FF6EF72A0F1100113
:103CB000914208D84FF6F0710140C0F342002268EB
:103CC0000844D06029E0012527E00025FDF70AFF20
:103CD00009E00020012506E00025FDF717FF02E0BE
:103CE0004FF400400025C0B1616A43F67672C0F619
:103CF000000232F811106268B0FBF1F000EB5200E4
:103D0000B0FBF2F04FF6EF72A0F11001914203D830
:103D1000216880B2C86000E001254FF00110002149
:103D2000A06621672846616701B0F0BD0000000071
:103D30000400000002000000080000000100000074
:103D40000400000002000000080000002DE9F0431C
:103D500081B004460068C0690840401AB0FA80F09B
:103D60004009904264D1DDF8208015460E46994600
:103D700008F1010709E000BF2068C0693040801BDE
:103D8000B0FA80F04009A84252D1002FF4D0FDF7DC
:103D900001FBB8F1000F2BD0A0EB0900404527D85C
:103DA00020680168490744BFC1695FEA0151E3D552
:103DB0004FF40061016200BF206850E8000F2168E5
:103DC00020F4D07041E80002002AF5D1206850E8C4
:103DD000020F216820F0010041E80202002AF5D11B
:103DE0002020C4F88400C4F88800C4F88C0018E0CF
:103DF000206850E8000F216820F4D07041E80002EC
:103E0000002AF5D1206850E8020F216820F0010057
:103E100041E80202002AF5D12020C4F88400C4F849
:103E20008800002084F88000032001B0BDE8F08302
:103E3000002001B0BDE8F083FEE70000002848BF85
:103E4000704700F01F01012202FA01F14EF2001248
:103E50004009CEF2000242F8201070474EF60C5096
:103E6000CEF200000068C0F3022070474EF61453F3
:103E700000F00F02CEF2000309011A4400F1604382
:103E8000B0F1FF3FC8BF03F56442117070470000F6
:103E90004EF60C51CEF200010A684FF6FF031A40AD
:103EA00060F30A2242F0806040F0FD7008607047C5
:103EB00042F60045C4F20105FDF780FAFFF7AAF9C2
:103EC000FEF78AFFFEF766FFFEF7E0FFFFF71CF83C
:103ED000FEF708FFFFF7C2F840F2D014C2F2000468
:103EE00020460021FEF76AFC20460421FEF712FB63
:103EF00040F21C20C2F200000021FEF75FFC4FF4EC
:103F0000FA60FDF74DF940F2700440F27400C2F21D
:103F10000004C2F2000021460122FCF7A3FF208822
:103F200040F27201C2F200010A889042FCD02A6875
:103F300082F001022A60A8632A6882F001022A60E6
:103F40000880F1E7F1EE100A4FF6FF71C0F2C031C0
:103F500020EA010040F04070E1EE100A70470000D6
:103F60000000000000000102030406070809000029
:103F70000000010203040100020004000600080022
:103F80000A000C0010002000400080000001010128
:103F900001030701000008040204080101010000F8
:103FA000C03F0008000000201000000014020008BC
:103FB000D03F000810000020600800003002000818
:103FC0000024F400010000001000000000000000C8
:04000005080001D915
:00000001FF
